:1000000012C02DC02CC02BC006C129C028C027C0DB
:1000100026C083C024C0F1C437C521C00CC11FC095
:100020001EC01DC01CC011241FBECFE5D4E0DEBF22
:10003000CDBF10E0A0E6B0E0E8E8F2E103C0C8956B
:1000400031960D92AA3CB107D1F711E0AAECB0E0CD
:1000500001C01D92AB31B107E1F77BD113C9D0CFFD
:10006000DF93CF93CDB7DEB780E390E0FC018081D2
:10007000882F90E088709070009731F48091CD00C7
:100080008F5F8093CD0002C01092CD008091CD0093
:10009000803128F084E68093CD0081E001C080E0CB
:1000A000CF91DF910895DF93CF9300D0CDB7DEB726
:1000B0009A83898386E490E029813A81FC01318327
:1000C000208388E490E026E430E0F901208131814A
:1000D00036952795FC01318320830F900F90CF91A7
:1000E000DF910895DF93CF9300D0CDB7DEB79A8329
:1000F000898389819A8190938B0080938A00809173
:100100008A0090918B00FC0180818F5F80931A019F
:100110000F900F90CF91DF9108951F920F920FB61D
:100120000F9211242F933F934F935F936F937F937D
:100130008F939F93AF93BF93EF93FF93DF93CF93EF
:10014000CDB7DEB78091CC008F5F8093CC008091DB
:10015000CC00883009F049C01092CC0080911A017F
:100160008F3F41F180911A01815080931A01809153
:100170001A01882339F480E090E095DF8FEF8093B7
:100180001A0118C020918A0030918B0080911A01C9
:10019000882F90E0820F931FFC018081482F50E050
:1001A00024E630E0429FC001439F900D529F900D86
:1001B000112479DF809113018F3F91F08091130119
:1001C00081508093130180911301882349F48FEFAC
:1001D0008093130186E790E085DF82E08093CA0078
:1001E000809116018F5F809316013ADF8093190189
:1001F000CF91DF91FF91EF91BF91AF919F918F913F
:100200007F916F915F914F913F912F910F900FBE12
:100210000F901F9018951F920F920FB60F921124F6
:10022000DF93CF93CDB7DEB7CF91DF910F900FBEA5
:100230000F901F9018951F920F920FB60F921124D6
:100240002F933F938F939F93EF93FF93DF93CF93DE
:10025000CDB7DEB787E290E0FC018081882F90E087
:1002600087709070009769F584E290E0FC018081CE
:10027000918190931801809317018091CA00843076
:1002800009F049C08091170190911801F2E0803D7A
:100290009F0708F040C082E390E022E330E0F901DC
:1002A00020812F77FC01208388E390E028E330E071
:1002B000F90120812160FC01208383E08093CA0042
:1002C0002AC084E290E0FC01808191819093150125
:1002D000809314018091CA008230E9F48091140166
:1002E00090911501F2E0803D9F07A8F488E390E02B
:1002F00028E330E0F90120812E7FFC01208382E396
:1003000090E022E330E0F90120812068FC012083A5
:1003100085E08093CA008091CB00882321F481E09E
:100320008093CB0002C01092CB0087E290E0209136
:10033000CB002064FC012083CF91DF91FF91EF91EE
:100340009F918F913F912F910F900FBE0F901F9013
:100350001895DF93CF93CDB7DEB7C050D1400FB61D
:10036000F894DEBF0FBECDBF81E390E020EEDC014C
:100370002C9387E390E021E0FC01208388E390E068
:10038000DC011C9282E390E0FC01108282E390E0A9
:1003900022E330E0D9012C912860FC01208382E324
:1003A00090E022E330E0D9012C912E7FFC012083E4
:1003B00082E390E022E330E0D9012C912F77FC0119
:1003C00020838FEF80931A01109213011092150170
:1003D0001092140110921801109217011092160138
:1003E00087E390E027E330E0D9012C912460FC0101
:1003F00020838AE490E022E330E0DC0111963C9314
:100400002E9386E490E020E137E2FC0131832083E3
:1004100088E490E026E430E0D9012D913C913695B6
:100420002795FC013183208388E490E0DC0111965C
:100430001C921E928FE490E022EAFC0120838EE45D
:1004400090E02AE1DC012C9383E590E025E0FC01BB
:10045000208389E590E029E530E0D9012C912160E5
:10046000FC01208385E490E027E0DC012C9389E502
:1004700090E029E530E0F90120812064DC012C9333
:1004800081E890E042D38CE890E0D0D3789487E282
:1004900090E020E4FC01208386E290E02FEEDC0176
:1004A0002C930FC000000DC000000BC0000009C05D
:1004B000000007C0000005C0000003C0000001C02C
:1004C00000008091CA00682F70E080911401909123
:1004D0001501AC0180911701909118019C01EDB7B5
:1004E000FEB73A970FB6F894FEBF0FBEEDBF8DB7BB
:1004F0009EB70196FE013196DC01ED93FC93E4EA90
:10050000F0E0DC011396FC93EE931297FC017583E7
:100510006483DC0117965C934E931697FC01318738
:100520002087E0D38DB79EB70A960FB6F8949EBF8A
:100530000FBE8DBFCE01019679D38091CA0088236A
:10054000C9F48091140190911501A2E0813D9A07B0
:1005500020F083E08093CA00B4CF8091170190917E
:100560001801B2E0813D9B0708F49CCF81E08093A5
:10057000CA00A7CF8091CA00813009F040C082E351
:1005800090E022E330E0F90120812064DC012C932B
:1005900082E390E022E330E0F90120812F7DDC014D
:1005A0002C9388E390E028E330E0F90120812E7F4E
:1005B000DC012C9382E390E022E330E0F90120811A
:1005C0002068DC012C938FEF80931301809114013C
:1005D00090911501B2E0813D9B0720F082E080936D
:1005E000CA006FCF8091170190911801E2E0803D21
:1005F0009E0708F059CF86E08093CA0062CF8091B1
:10060000CA00823009F04AC082E390E022E330E081
:10061000D9012C912F7BFC01208382E390E022E31F
:1006200030E0D9012C912F7DFC01208382E390E002
:1006300022E330E0D9012C912F77FC01208388E35D
:1006400090E028E330E0D9012C912160FC01208367
:1006500080911901882391F08091170190911801E0
:10066000F2E0813D9F0750F084E08093CA0080E86B
:1006700090E038DD84E68093130123CF8091170149
:100680009091180122E08E38920708F00FCF83E096
:100690008093CA0080E690E025DD13CF8091CA00E8
:1006A0008330E1F582E390E022E330E0D9012C9140
:1006B0002F7DFC01208382E390E022E330E0D9012A
:1006C0002C912F7BFC01208382E390E022E330E039
:1006D000D9012C912F77FC01208388E390E028E357
:1006E00030E0D9012C912160FC0120838091170119
:1006F00090911801F2E0813D9F0738F082E08093ED
:10070000CA008BE690E0EEDCDCCE809119018823F4
:1007100009F4CECE86E790E0E5DCD3CE8091CA0026
:10072000843089F582E390E022E330E0D9012C9116
:100730002064FC01208382E390E022E330E0D901D1
:100740002C912F7DFC01208388E390E028E330E0AA
:10075000D9012C912E7FFC01208382E390E022E3DB
:1007600030E0D9012C912068FC0120838091140194
:1007700090911501F2E08E389F0708F09BCE81E042
:100780008093CA009ECE8091CA00853009F051C086
:1007900080E197E288DC82E390E022E330E0D90157
:1007A0002C912064FC01208382E390E022E330E07E
:1007B000D9012C912062FC01208388E390E028E39A
:1007C00030E0D9012C912E7FFC01208382E390E060
:1007D00022E330E0D9012C912068FC012083809134
:1007E0001901882339F081E08093CA0080E090E00D
:1007F0005ADC67CE8091170190911801F2E0803D9C
:100800009F0738F486E08093CA0080E090E04BDCDC
:1008100058CE809114019091150122E0813D9207FC
:1008200008F44ACE82E08093CA0080E090E03BDC8E
:1008300048CE8091CA00863009F043C082E390E040
:1008400022E330E0D9012C912064FC01208382E373
:1008500090E022E330E0D9012C912062FC0120835A
:1008600088E390E028E330E0D9012C912E7FFC0151
:10087000208382E390E022E330E0D9012C912068CC
:10088000FC01208388E99AE30EDC809117019091A6
:100890001801F2E08E389F0720F487E08093CA00A9
:1008A00010CE809114019091150122E0813D9207B4
:1008B00008F404CE82E08093CA0080E090E0F3DB8D
:1008C00000CE8091CA00873009F0FACD82E390E033
:1008D00022E330E0D9012C912064FC01208382E3E3
:1008E00090E022E330E0D9012C912062FC012083CA
:1008F00088E390E028E330E0D9012C912E7FFC01C1
:10090000208382E390E022E330E0D9012C9120683B
:10091000FC012083D6CDDF93CF9300D00F92CDB7CB
:10092000DEB71B821A82000086E290E0FC01808123
:10093000882F90E0807490700097B1F7198222C0E0
:1009400086E290E026E230E0F90120812064FC019B
:100950002083000086E290E0FC018081882F90E0F7
:10096000807490700097B1F784E290E0FC01808180
:1009700091812A813B81820F931F9B838A83898186
:100980008F5F898389818330D8F28A819B8123E0BC
:1009900030E0B90191D19B013B832A838A819B81FD
:1009A0000F900F900F90CF91DF910895DF93CF9329
:1009B00000D00F92CDB7DEB78B8387E290E0FC01C9
:1009C000808189838B8180648A8399818A81981749
:1009D00071F087E290E02A81FC01208386E290E0BA
:1009E00026E230E0F90120812064FC0120830F9091
:1009F0000F900F90CF91DF9108951F920F920FB635
:100A00000F9211242F938F939F93EF93FF93DF9374
:100A1000CF9300D000D0CDB7DEB78BE290E0FC01E1
:100A200080818A838CE290E0FC0180818B838A81C3
:100A300088718983809110018F5F8F718C83809181
:100A400011019C81981719F482E089830BC08C8175
:100A5000809310018C81882F90E082519F4F2B81D1
:100A6000FC0120838981809312012496DEBFCDBFD3
:100A7000CF91DF91FF91EF919F918F912F910F90E7
:100A80000FBE0F901F9018951F920F920FB60F92E6
:100A900011242F933F938F939F93EF93FF93DF93B3
:100AA000CF930F92CDB7DEB790910E0180910F01D9
:100AB0009817A1F080910F018F5F8F7189838981D1
:100AC00080930F018CE290E02981222F30E02253A5
:100AD0003F4FF9012081FC01208309C08AE290E0A8
:100AE0002AE230E0F90120812F7DFC0120830F9064
:100AF000CF91DF91FF91EF919F918F913F912F9136
:100B00000F900FBE0F901F901895DF93CF9300D0DA
:100B1000CDB7DEB79A83898310920E0110920F0130
:100B2000109210011092110189819A81992354F435
:100B30008BE290E022E0FC01208389819A819F77FB
:100B40009A83898380E490E029813A81232F332797
:100B5000FC01208389E290E02981FC0120838AE264
:100B600090E028E9FC01208380E490E026E8FC0185
:100B700020830F900F90CF91DF910895DF93CF9353
:100B800000D0CDB7DEB79091100180911101981778
:100B900019F480E091E01BC0809111018F5F8F718B
:100BA00089838981809311018981882F90E0825106
:100BB0009F4FFC0180818A8380911201882F90E0F1
:100BC000382F22278A81882F90E0820F931F0F9061
:100BD0000F90CF91DF910895DF93CF9300D0CDB7E1
:100BE000DEB78A8380910E018F5F8F718983000049
:100BF00080910F0199819817D9F38981882F90E00E
:100C000082539F4F2A81FC012083898180930E01AA
:100C10008AE290E02AE230E0F90120812062FC01C2
:100C200020830F900F90CF91DF910895DF93CF93A2
:100C300000D0CDB7DEB79A8389830BC089819A81B2
:100C4000FC01208189819A8101969A838983822F70
:100C5000C3DF89819A81FC018081882379F70F9015
:100C60000F90CF91DF9108951F93DF93CF9300D022
:100C700000D00F92CDB7DEB79D838C8302C0812F49
:100C8000ABDF8C819D819A8389838C819D810196C4
:100C90009D838C8389819A81FC0114911B838B81B4
:100CA000182F112361F70F900F900F900F900F9056
:100CB000CF91DF911F910895AA1BBB1B51E107C083
:100CC000AA1FBB1FA617B70710F0A61BB70B881FDC
:100CD000991F5A95A9F780959095682F792F8A2F9B
:100CE0009B2F0895AEE0B0E0E7E7F6E0A1C20D89E2
:100CF0001E8986E08C831A8309838FEF9FE79E838A
:100D00008D839E01275E3F4FCE0101966F89788DBE
:100D1000A90108D0EF81F885E00FF11F10822E960F
:100D2000E4E0A2C2ACE0B0E0E7E9F6E073C26C0137
:100D30001B018A01FC0117821682838181FFC4C1D5
:100D40002E010894411C511CF6019381F10193FD81
:100D5000859193FF81911F01882309F4B1C18532E8
:100D600039F493FD859193FF81911F01853221F420
:100D700090E0B601C5D1E8CFEE24FF2420E0203278
:100D8000B0F48B3269F08C3228F4803251F0833227
:100D900071F40BC08D3239F0803349F421602CC0DE
:100DA0002260246029C0286027C0206125C027FD5B
:100DB0002CC0382F30533A3098F426FF08C08E2DBF
:100DC000880FE82EEE0CEE0CE80EE30E15C08F2D0A
:100DD000880FF82EFF0CFF0CF80EF30E20620CC0EB
:100DE0008E3221F426FD6CC1206406C08C3611F4CD
:100DF000206802C0883649F4F10193FD859193FF84
:100E000081911F01882309F0BACF982F9554933010
:100E100018F09052933028F40C5F1F4FFFE3F983D2
:100E20000DC0833631F0833771F0833509F05CC033
:100E300021C0F801808189830E5F1F4F420171E05C
:100E4000A72EB12C15C062E0662E712C600E711EAB
:100E5000F8018080918026FF03C06E2D70E002C0F3
:100E60006FEF7FEFC4012C8740D15C0183012C859B
:100E70002F7716C052E0652E712C600E711EF8019E
:100E80008080918026FF03C06E2D70E002C06FEF5E
:100E90007FEFC4012C871ED15C012C852068830163
:100EA00023FD1EC007C080E290E0B6012C8728D148
:100EB000FA942C858F2D90E0A816B906A0F310C0E7
:100EC000F40127FD859127FF81914F0190E0B60144
:100ED0002C8716D12C85F110FA940894A108B1083A
:100EE000A114B10469F7E9C0843611F0893641F5DF
:100EF00027FF08C0F80160817181828193810C5FB6
:100F00001F4F09C0F80160817181882777FD8095A6
:100F1000982F0E5F1F4F4FE6B42EB22297FF09C0E5
:100F200090958095709561957F4F8F4F9F4FF0E81A
:100F3000BF2AA2012AE030E00FD1782E741844C0F5
:100F4000853731F43FEEB32EB2222AE030E025C0DF
:100F500099EFB92EB2228F36C1F0803720F4883550
:100F600009F0AEC00DC0803721F0883709F0A8C065
:100F700002C020E1B22AB4FE0BC084E0B82A08C047
:100F8000B4FE09C0E6E0BE2A06C028E030E005C095
:100F900020E130E002C020E132E0B7FE08C0F801F5
:100FA00060817181828193810C5F1F4F07C0F801BE
:100FB0006081718180E090E00E5F1F4FA201CCD074
:100FC000782E7418FFE7BF22B6FE0BC02EEFB222B8
:100FD0007E1438F4B4FE07C0B2FC05C08FEEB82210
:100FE00002C0A72C01C0AE2C8B2D90E0B4FE0DC02A
:100FF000FE01E70DF11D2081203319F4E9EEBE2238
:1010000009C0A394B2FE06C004C086789070009711
:1010100009F0A3948B2C9924B3FC13C0B0FE0EC02E
:10102000AF1428F4E72CEF0CEA18AF2C07C0E72C1C
:1010300005C080E290E0B60163D0A394AF14C8F37A
:1010400004C0AF1410F4FA1801C0FF2484FE0EC0CF
:1010500080E390E0B60154D082FE1DC081FE03C043
:1010600088E590E010C088E790E00DC0C401867864
:101070009070009781F081FC02C080E201C08BE299
:10108000B7FC8DE290E0B6013BD005C080E390E074
:10109000B60136D0EA947E14C8F37A94F201E70DD3
:1010A000F11D808190E0B6012BD07720B1F705C00B
:1010B00080E290E0B60124D0FA94FF20C9F744CE34
:1010C000F6012681378102C02FEF3FEFC9012C9630
:1010D000E2E1BCC0FC010590615070400110D8F7FE
:1010E000809590958E0F9F1F0895FC016150704070
:1010F00001900110D8F7809590958E0F9F1F08954D
:101100000F931F93CF93DF938C01EB018B8181FFB2
:101110001BC082FF0DC02E813F818C819D812817CD
:10112000390764F4E881F9810193F983E88306C003
:10113000E885F985802F0995009731F48E819F818C
:1011400001969F838E8302C00FEF1FEFC801DF91CE
:10115000CF911F910F910895FA01AA27283051F1DC
:10116000203181F1E8946F936E7F6E5F7F4F8F4FD8
:101170009F4FAF4FB1E03ED0B4E03CD0670F781F37
:10118000891F9A1FA11D680F791F8A1F911DA11D1C
:101190006A0F711D811D911DA11D20D009F4689455
:1011A0003F912AE0269F11243019305D3193DEF6FD
:1011B000CF010895462F4770405D4193B3E00FD0B3
:1011C000C9F7F6CF462F4F70405D4A3318F0495D9E
:1011D00031FD4052419302D0A9F7EACFB4E0A69581
:1011E0009795879577956795BA95C9F700976105A3
:1011F000710508959B01AC010A2E069457954795F9
:1012000037952795BA95C9F7620F731F841F951FED
:10121000A01D08952F923F924F925F926F927F92FE
:101220008F929F92AF92BF92CF92DF92EF92FF92F6
:101230000F931F93CF93DF93CDB7DEB7CA1BDB0BA2
:101240000FB6F894DEBF0FBECDBF09942A88398847
:1012500048885F846E847D848C849B84AA84B9844E
:10126000C884DF80EE80FD800C811B81AA81B9815A
:10127000CE0FD11D0FB6F894DEBF0FBECDBFCA2F63
:08128000DB2F0895F894FFCF65
:101288000ABEB4AAA0968C82786E640A646E7882CC
:101298008C96A0AAB4BE049696C8C896960000007C
:1012A8000464966496649600000060000A0A434E3F
:1012B80020506F77657220537769746368205631C0
:1012C8002E300A0073746174653A20253031642029
:1012D80065787465726E202530346420696E746593
:0A12E800726E20253034640A000005
:00000001FF
