:100000000C9452000C946F000C946F000C946F00D1
:100010000C947A050C946F000C946F000C946F0094
:100020000C946F000C946F000C946F000C946F0094
:100030000C946F000C9468080C9491080C946F0059
:100040000C946F000C946F000C946F000C946F0074
:100050000C946F00554E4445460045787465726EA9
:10006000616C0042524F574E204F55540057415437
:100070004348444F47004A54414700506F776572E8
:10008000204F6E000008006000080000000800001B
:100090000008000000080000000800000008FFFF42
:1000A0000008FFFF11241FBECFE5D8E0DEBFCDBFA3
:1000B00012E0A0E6B0E0E0EFF3E202C005900D929E
:1000C000A631B107D9F714E0A6E1B2E001C01D9254
:1000D000A531B107E1F70E94110D0C94F6110C94B3
:1000E000000080FD0BC084FD0CC083FD0DC082FDAF
:1000F0000EC081FF0FC08AE590E008958BE790E085
:10010000089586E790E008958DE690E0089583E6EF
:1001100090E0089584E590E008958FB9779BFECF35
:100120008FB108951F93CF93DF931F92CDB7DEB7A2
:10013000182FC49882E069830E948D00812F0E944D
:100140008D006981862F0E948D00C49A0F90DF91E7
:10015000CF911F910895CF93C82FC49883E00E9438
:100160008D008C2F0E948D008FEF0E948D00C49A0D
:10017000CF9108951F93CF93DF9300D0CDB7DEB713
:10018000182FC49885E04A8369830E948D00812FCF
:100190000E948D006981862F0E948D004A81842FE4
:1001A0000E948D00C49A0F900F90DF91CF911F9104
:1001B0000895C4980E948D008FEF0E948D00C49A0C
:1001C0000895C49ABC9AC798C598C698BF9ABD9A14
:1001D000BE98BA98C29A81E58DB91EB8C49880ECD1
:1001E0000E948D00C49A85E38A95F1F70000C498B7
:1001F00082E00E948D0088E20E948D0082E00E94D1
:100200008D0080E90E948D0080E00E948D0083E0D7
:100210000E948D00C49A8AE20E94AB00811116C030
:1002200060E08CE00E94920060E08DE00E9492000D
:1002300064E480E60E94920060E480E70E949200FD
:1002400060E08FE00E94920081E0089580E00895D0
:1002500086B382FB882780F991E08927089580EA98
:100260000E94D900982F947581E0943509F480E0BC
:100270000895DF92EF92FF920F931F93CF93DF9336
:100280001F92CDB7DEB78C0180EB0E94D900898325
:10029000898186FD05C0898187FF50C084E901C03E
:1002A00080E9C4980E948D008FEF0E948D0098E035
:1002B000899F70011124F801F182E0828FEF0E9482
:1002C0008D00829586958770E82AF801F182E08298
:1002D0008FEF0E948D008FEF0E948D008FEF0E94A4
:1002E0008D008F70D82E880FF8019281917E982B07
:1002F0009283898183FB882780F980FB90F9928320
:10030000E12CF12CED1458F48FEF0E948D00F801D0
:10031000EE0DFF1D8383FFEFEF1AFF0AF3CFC49AA0
:10032000898140E086FF02C061E001C062E08CE2AA
:100330000E94BA00898187708F5F01C080E00F90B2
:10034000DF91CF911F910F91FF90EF90DF90089573
:10035000DF92EF92FF920F931F93CF93DF931F9241
:10036000CDB7DEB78C0180EB0E94D90089838981EB
:1003700086FD05C0898187FF4AC084E901C080E904
:10038000C4980E948D008FEF0E948D00F801808339
:100390008FEF0E948D00F80181838FEF0E948D0006
:1003A000F80182838FEF0E948D00F80183838FEF25
:1003B0000E948D008F70D82E880FF8019481917E55
:1003C000982B9483898183FB882780F980FB90F99F
:1003D0009483E12CF12CED1458F48FEF0E948D00E2
:1003E000F801EE0DFF1D8583FFEFEF1AFF0AF3CF33
:1003F000C49A898140E086FF02C061E001C062E0EA
:100400008CE20E94BA00898187708F5F01C080E012
:100410000F90DF91CF911F910F91FF90EF90DF90A0
:100420000895CF92DF92EF92FF920F931F93CF9395
:10043000DF931F92CDB7DEB78C0180EA0E94D9000E
:100440008983898182FF09C0898184FF08C08981ED
:1004500086FD53C044E0D42E04C0D12C02C032E04B
:10046000D32EC4988D2D80640E948D00F801808168
:10047000918123E0969587952A95E1F70E948D005A
:10048000F80180818295880F807E0E948D0080E037
:100490000E948D0080E00E948D00F8018281C82EAC
:1004A000C694FC2DFF70CF2E80FF05C08F2F806477
:1004B0000E948D0011C08F2F0E948D00E12CF12C25
:1004C000EC1450F4F801EE0DFF1D83810E948D00A5
:1004D0008FEFE81AF80AF4CFC49A95E09A95F1F7ED
:1004E0000000C498D11002C0DD24D3948D2D806803
:1004F0000E948D00C49A8D2D01C080E00F90DF9185
:10050000CF911F910F91FF90EF90DF90CF900895C2
:10051000FC01DB01808128E0829FC00111249181D0
:10052000929596959770982B9C938181282F237094
:100530002C608C7F38E0839FC0011124282B1196FA
:100540002C931197828112968C9312978381139624
:100550008C930895CF92DF92EF92FF920F931F93A7
:10056000CF93DF931F92CDB7DEB78C0180EA0E9454
:10057000D9008983898182FF09C0898184FF08C0ED
:10058000898186FD4CC064E0D62E04C0D12C02C007
:1005900052E0D52EC4988D2D80640E948D00F80104
:1005A00080810E948D00F80181810E948D00F801F8
:1005B00082810E948D00F80183810E948D00F801E4
:1005C0008481C82EC694FC2DFF70CF2E80FF05C0FD
:1005D0008F2F80640E948D0011C08F2F0E948D008C
:1005E000E12CF12CEC1450F4F801EE0DFF1D858187
:1005F0000E948D008FEFE81AF80AF4CFC49A95E0B4
:100600009A95F1F70000C498D11002C0DD24D3946C
:100610008D2D80680E948D00C49A8D2D01C080E0D0
:100620000F90DF91CF911F910F91FF90EF90DF908E
:10063000CF900895EF92FF920F931F93CF93DF9384
:10064000EC0140E860EE8FE00E94BA0010E0F12C6F
:10065000E12CC49882E00E948D00812F0E948D00C1
:1006600000E082E0F81202C0083050F4FE01EE0D06
:10067000F11D84910E948D00E3940F5F0C3089F787
:10068000C49AF394105F103321F740E060EE8FE0DE
:10069000DF91CF911F910F91FF90EF900C94BA00D2
:1006A000CF93DF9300D000D01F92CDB7DEB7999BD8
:1006B00007C023B331E02327822F817090E002C06E
:1006C00080E090E021E0181619060CF020E0898106
:1006D00020FB85F9898391E00FB405FE90E08981C4
:1006E00090FB84F9898399B393FB992790F990FB48
:1006F00083F99091160290FB82F989830E948A0700
:100700009B838A830E940D079D838C8345E0BE01F5
:100710006F5F7F4F82EF0E940A0A0F900F900F9039
:100720000F900F90DF91CF91089580916400811117
:100730000EC00E9466086093220270932302809389
:100740002402909325028FB580628FBDAF980895E3
:10075000109222021092230210922402109225027B
:100760008FB58F7D8FBD9498AF9A089581E0809367
:1007700064000E94A8038FE19EE40197F1F700C096
:100780000000A998A898C0980895C09AA99AA89816
:1007900080911C0281110DC081E080931C022FB753
:1007A000F89480E593EC90936600809365002FBFEA
:1007B00008958091650090916600892B69F41092EC
:1007C0001C028BE690E00E94870A109264000E944F
:1007D0009503AE98109263000895CF93DF93EC01D8
:1007E000CB3481E0D80720F082E790E00E942D0B07
:1007F000D0936100C0936000DF91CF910895999BE1
:1008000004C083B380958170089580E00895CF92ED
:10081000DF92EF92FF920F931F93CF93DF930E948B
:100820000D07EC010E9466086B017C01683E23E025
:1008300072078105910508F430C18091160280FF8E
:1008400029C00E94B6030E9466086B017C0180915A
:10085000260290912702A0912802B0912902A701B7
:100860009601281B390B4A0B5B0BDA01C901893E43
:100870009340A105B10508F410C189E890E00E94F9
:10088000DA0AC0922602D0922702E0922802F09261
:10089000290203C10E94790720E030E048E851E4D2
:1008A0000E94430D87FF47C00E946608009117020F
:1008B000109118022091190230911A02601B710BDD
:1008C000820B930B683E73408105910508F4E5C0E7
:1008D00081E0809364000E94A8038FE19EE4019769
:1008E000F1F700C00000A998A89820911602822F65
:1008F00086958F5F8F77982F990F2170292B2093E2
:10090000160290E0059744F02160209316020E94A1
:10091000B6038BEA90E002C088ED90E00E94DA0A0C
:100920000E94660860931702709318028093190260
:1009300090931A02B2C0809116028E7F09F10E9434
:100940006608009117021091180220911902309147
:100950001A02601B710B820B930B6838734181057F
:10096000910508F49AC083EF90E00E94DA0AA99AF0
:10097000A8981092640080911602817080931602EC
:100980008091220290912302A0912402B09125022D
:100990000097A105B105F1F0A7019601281B390BBD
:1009A0004A0B5B0BDA01C90181339547A105B105FB
:1009B00088F00E940D07419718F485E091E002C08D
:1009C0008DE291E00E94DA0A8091160281608093A4
:1009D000160263C080911E0290911F02A091200216
:1009E000B0912102C81AD90AEA0AFB0A8091630071
:1009F00048EEC41643E0D406E104F10428F09091D7
:100A00001D02992309F441C081110E94C503809100
:100A10006200882309F441C08091600090916100D8
:100A2000C817D907A8F00FB405FE12C080911D02A7
:100A3000882321F082E591E00E94870ADF91CF911F
:100A40001F910F91FF90EF90DF90CF900C94A8032F
:100A50000A978C179D0708F18091640081111DC0D1
:100A60000FB405FC1AC080911D02882321F08AE58D
:100A700091E00E94870ADF91CF911F910F91FF9023
:100A8000EF90DF90CF900C949503811106C00E94E7
:100A9000B603AE9A81E080936300DF91CF911F91FE
:100AA0000F91FF90EF90DF90CF9008958C9A9498DB
:100AB00083E08FBD81E18EBD88E690E09BBD8ABD5D
:100AC00080E290E099BD88BDA79AAF9AA69AAE9AA7
:100AD0000E94A8038FE19EE40197F1F700C0000097
:100AE000A19AA09AA998A898B89AC09A81E08093F0
:100AF000630008951F920F920FB60F9211242F9347
:100B00003F934F935F936F937F938F939F93AF9395
:100B1000BF93EF93FF938091650090916600892BBE
:100B200049F080916500909166000197909366006E
:100B300080936500809135028F5F80933502853602
:100B400020F00E948F0710923502FF91EF91BF9124
:100B5000AF919F918F917F916F915F914F913F9155
:100B60002F910F900FBE0F901F90189589B7806836
:100B700089BF85B5896085BD80EA83BDD39ADB983E
:100B80000895CF93DF93EC010E94660860932A02D8
:100B900070932B0280932C0290932D02D0933302FA
:100BA000C0933202DF91CF9108951F93CF93DF93CB
:100BB000EC01162F20916000261740F0862F90E060
:100BC00030E02A503109821793073CF481E691E026
:100BD000DF91CF911F910C94DA0A0E94660860930E
:100BE0002A0270932B0280932C0290932D02D093B3
:100BF0003302C093320210933402DF91CF911F91E0
:100C00000895CF92DF92EF92FF920F931F93CF93AD
:100C1000DF93CDB7DEB76E970FB6F894DEBF0FBE89
:100C2000CDBF0E9466086B017C0180912A029091E1
:100C30002B02A0912C02B0912D02892B8A2B8B2B99
:100C400009F4B1C080912E0290912F02A091300240
:100C5000B0913102A7019601281B390B4A0B5B0B9F
:100C6000283C31054105510528F11091340211232A
:100C700051F00E940D07212F30E02817390709F0A5
:100C800092C01092340280912A0290912B02A0917E
:100C90002C02B0912D02C81AD90AEA0AFB0A31EDDA
:100CA000C31637E0D306E104F10468F08BE791E066
:100CB0000E94DA0A10922A0210922B0210922C0241
:100CC00010922D0270C00E94FF03811105C08DE8B3
:100CD00091E00E94870A67C00E94A803DB9A2FB7A1
:100CE000F894809132029091330290936600809341
:100CF00065002FBF8091650090916600892BD1F728
:100D000080916500909166008111F4CFDB9888E6B0
:100D100090E09BBD8ABD80E290E099BD88BD809146
:100D2000620081110E9495030E946608C0902A0209
:100D3000D0902B02E0902C02F0902D026C197D09CE
:100D40008E099F09693E4DEF74078105910518F0E2
:100D500060E070E0CB017F936F9385EB91E09F9310
:100D60008F938E010F5F1F4F1F930F930E94250FCC
:100D7000C8010E94870A10922A0210922B02109238
:100D80002C0210922D020E94660860932E0270932E
:100D90002F0280933002909331020F900F900F90AA
:100DA0000F900F900F906E960FB6F894DEBF0FBEA7
:100DB000CDBFDF91CF911F910F91FF90EF90DF900A
:100DC000CF9008950C94010682B390E4892782BBEA
:100DD00008953699FECF47E080E090E0369A369944
:100DE000FECF24B135B1820F931F4150B9F767E0B0
:100DF00070E00E94F40ECB01089597B180649817BB
:100E000011F087B9369A089587E886B980E487B9E2
:100E100086E00E94FD068E9A089586E00E94FD06F7
:100E20000E94E906BC0180E090E00E94DB0D23EE09
:100E300035EA4BED5EE30E94910E0E94AF0D6233E6
:100E4000710518F425E030E005C06634710538F40A
:100E500024E130E039BD28BD28E630E046C0AB01D2
:100E6000475451094331510518F424E330E0F2CFDF
:100E7000AB014B5551094D31510538F424E330E0B5
:100E800039BD28BD24E630E030C0AB0149575109D7
:100E90004732510538F424E330E039BD28BD20E65F
:100EA00030E023C0AB01415A51094732510538F4B3
:100EB00024E330E039BD28BD2CE530E016C0AB019D
:100EC000495C51094732510538F424E330E039BD1B
:100ED00028BD2AE530E009C0613F710540F024E3F8
:100EE00030E039BD28BD28E530E03BBD2ABDCB014F
:100EF000089581E00E94FD060E94E906BC0180E0A1
:100F000090E00E94DB0D2AED33EA41E25DE30E94AE
:100F1000910E089581E00E94FD060C94E9068091EF
:100F2000360290913702A0913802B09139020196B1
:100F3000A11DB11D8093360290933702A093380211
:100F4000B0933902089508958091420281FF13C041
:100F500080913C0290913D02892B69F0E0913C0226
:100F6000F0913D0209959FB7F894809142028D7FE0
:100F7000809342029FBF8091420282FF13C0809102
:100F8000400290914102892B69F0E0914002F0917A
:100F9000410209959FB7F894809142028B7F80931C
:100FA00042029FBF0895CF92DF92EF92FF920F937C
:100FB0001F93CF93DF938C0180E090E00E94DB0DC4
:100FC0006B017C012FE632E143E850E40E94430DBF
:100FD00087FD31C02DE53FE842E854E4C701B60182
:100FE0000E948D0E18163CF180913C0290913D02BA
:100FF000892B49F08091400290914102892BD9F4CC
:10100000C1E0D0E002C0C0E0D0E02FE632E143E82A
:1010100050E4C701B6010E94470D0E94AF0DCC0FEE
:10102000DD1FCC0FDD1FC65CDD4F1B830A83698388
:10103000688380E001C081E0DF91CF911F910F9123
:10104000FF90EF90DF90CF90089520913C02309177
:101050003D022817390751F020914002309141029A
:101060002817390729F581E090E002C080E090E080
:10107000FC01EE0FFF1FEE0FFF1FE65CFD4F10821D
:101080001182138212824FB7F894509142029C0150
:101090002F5F3F4F81E090E0022E01C0880F0A943D
:1010A000EAF780958523809342024FBF80E0089540
:1010B00081E008952FB7F89460913602709137025D
:1010C00080913802909139022FBF08950C945A08EC
:1010D0001F920F920FB60F9211242F938F939F930D
:1010E000EF93FF938BB19CB18871E0914502EF5F64
:1010F000EF7120914402E21739F0E0934502F0E0ED
:10110000E85BFD4F908301C082E080934302FF9132
:10111000EF919F918F912F910F900FBE0F901F9085
:1011200018951F920F920FB60F9211248F939F93D1
:10113000EF93FF939091470280914602981761F0D8
:10114000E0914602EF5FEF71E0934602F0E0E8596C
:10115000FD4F80818CB901C05598FF91EF919F910F
:101160008F910F900FBE0F901F901895109247020D
:1011700010924602109245021092440297FF03C05B
:1011800022E02BB99F7790BD89B988E98AB986E8B2
:1011900080BD08959091450280914402981791F086
:1011A000E0914402EF5FEF71E0934402F0E0E85B0E
:1011B000FD4F20818091430290E0982F8827820F75
:1011C000911D089580E091E00895909147029F5FFE
:1011D0009F71209146029217E1F3E92FF0E0E85960
:1011E000FD4F808390934702559A0895CF93DF93E4
:1011F000EC018991882319F00E94E508FACFDF916C
:10120000CF910895CF93DF93FC018491EF01219654
:10121000882321F00E94E508FE01F7CFDF91CF91EE
:101220000895809145022091440290E04F96821BE0
:1012300091096FE170E00E94080F089580914402C7
:101240008093450208950E94E10084E890E00E94A6
:101250001A0340E060EE8FE00C94BA001F93CF9326
:10126000DF93CDB7DEB761970FB6F894DEBF0FBE40
:10127000CDBF1E8680E48F8780E6888B8D81817E3E
:1012800082608D8310E0198BBE016F5F7F4FCE01AE
:101290000E960E9488021E838D818E7F8D83CE01E3
:1012A00001960E94AA028823D1F31F5F143159F7D7
:1012B00061960FB6F894DEBF0FBECDBFDF91CF9120
:1012C0001F910895CF93DF93CDB7DEB72D970FB65B
:1012D000F894DEBF0FBECDBF0E942801882371F0B5
:1012E000CE0101960E94A8018C81803639F4E091EC
:1012F0006900F0916A00CE01019609952D960FB60E
:10130000F894DEBF0FBECDBFDF91CF9108950F934C
:101310001F9390918A0280918902981799F10E94F7
:10132000660800918B0210918C0220918D02309101
:101330008E02601B710B820B930B6A307105810565
:10134000910500F1809189022DE0829FC001112456
:1013500081579D4F0E94AA028823A1F080918902A3
:101360008F5F8E3119F08093890202C0109289023A
:101370000E94660860938B0270938C0280938D02AA
:1013800090938E021F910F91089520918A023DE063
:10139000329FD0011124A157BD4FFC0101900D9245
:1013A0003A95E1F72F5F2E3119F020938A0202C09F
:1013B00010928A0280918A0290918902891307C053
:1013C0008F5F809389028E3111F410928902089503
:1013D000CF92DF92EF92FF92CF93DF93EC010E94C6
:1013E00066086B017C01CE010E94AA0281110BC02C
:1013F0000E945A086C197D098E099F096B3071058E
:101400008105910580F3DF91CF91FF90EF90DF9000
:10141000CF900895FF920F931F93CF93DF93CDB793
:10142000DEB762970FB6F894DEBF0FBECDBFF82EC1
:101430008B011E8680E48F8780E6888B198ABE0127
:101440006F5F7F4FCE010E964A8B0E9488029D816E
:101450009E7F9D834A89242F483008F027E0FE8232
:10146000422F50E0B801CE0107962A8B0E941C0F34
:101470002A8941E0420F4F70440F8D81817E842B79
:101480008D83CE0101960E94C50962960FB6F8942D
:10149000DEBF0FBECDBFDF91CF911F910F91FF90A7
:1014A0000895BF92CF92DF92EF92FF920F931F9316
:1014B000CF93DF93C82E8B01EB0109900020E9F751
:1014C0002197C61BD70BBC2ED12C7E01FF24DB1429
:1014D000A0F46D2D70E09701261B370B600F711F74
:1014E0002830310514F047E002C04C2F4D198C2DE7
:1014F0000E940A0A87E0D80EEACFDF91CF911F91B0
:101500000F91FF90EF90DF90CF90BF900895CF9212
:10151000DF92EF92FF920F931F93CF93DF93CDB79C
:10152000DEB7BC01CDB6DEB6FC0101900020E9F7C4
:101530008F0101501109081B190B1127FC01E00F45
:10154000F11F319780818A3051F1C80102962DB781
:101550003EB7281B390B0FB6F8943EBF0FBE2DBF08
:101560008DB79EB701967C01A8010E941C0FF70160
:10157000E00FF11F8AE080831182B7018EE30E94A1
:10158000510A0FB6F894DEBE0FBECDBEDF91CF91EB
:101590001F910F91FF90EF90DF90CF9008958EE311
:1015A000DF91CF911F910F91FF90EF90DF90CF903F
:1015B0000C94510ACF92DF92EF92FF920F931F93F8
:1015C000CF93DF93CDB7DEB7BC01CDB6DEB6FC015D
:1015D00001900020E9F78F0101501109081B190B38
:1015E0001127FC01E00FF11F319780818A3051F102
:1015F000C80102962DB73EB7281B390B0FB6F894D9
:101600003EBF0FBE2DBF8DB79EB701967C01A801CE
:101610000E941C0FF701E00FF11F8AE08083118206
:10162000B70182E20E94510A0FB6F894DEBE0FBEE7
:10163000CDBEDF91CF911F910F91FF90EF90DF9082
:10164000CF90089582E2DF91CF911F910F91FF908B
:10165000EF90DF90CF900C94510ACF92DF92EF92EF
:10166000FF920F931F93CF93DF93CDB7DEB7BC01EB
:10167000CDB6DEB6FC0101900020E9F78F010150E4
:101680001109081B190B1127FC01E00FF11F3197FD
:1016900080818A3051F1C80102962DB73EB7281BD0
:1016A000390B0FB6F8943EBF0FBE2DBF8DB79EB756
:1016B00001967C01A8010E941C0FF701E00FF11FA9
:1016C0008AE080831182B70181E20E94510A0FB63D
:1016D000F894DEBE0FBECDBEDF91CF911F910F916A
:1016E000FF90EF90DF90CF90089581E2DF91CF914E
:1016F0001F910F91FF90EF90DF90CF900C94510AC3
:101700000F931F93CF93DF9300D0CDB7DEB78C013B
:101710001A821982FC018581803309F47EC0B8F4F5
:10172000823009F47AC0833069F1813009F071C0E8
:101730000E94660860931E0270931F02809320022D
:101740009093210240E060E070E081EF5CC0803463
:1017500009F45CC018F48133C9F15BC0813409F429
:101760004EC08D3609F055C08BEC91E00E94870A7F
:1017700081E080931D0284E19CE090936A00809355
:1017800069004BC00E946608693E7340810591055F
:1017900008F443C0F8012681878190E0982F8827BC
:1017A000820F911D9A83898384818E71863029F4FA
:1017B00089819A810E94C10530C0883071F5898184
:1017C0009A81F80160850E94D50527C0F8018481BF
:1017D0008E71863041F42681878190E0982F88278A
:1017E000820F911D05C08430C1F4F801868190E01C
:1017F0009A83898389819A810E94ED030EC045E016
:1018000065EC71E083EF0E940A0A07C00E94500352
:1018100004C082ED91E00E942D0B0F900F90DF919C
:10182000CF911F910F9108950F931F93CF93DF9343
:10183000CDB7DEB728970FB6F894DEBF0FBECDBF89
:10184000DC0115962C911597233709F048C01496A2
:101850006C9166956F7070E0E1E020E030E0FAE0B6
:101860004E2F50E046175707FCF4DC01A40FB51FBC
:1018700015964C9150ED540F5A3088F4D901FA9FC7
:101880009001FB9F300D112420533109240F311D8D
:101890002031B7E23B0730F08AEE91E053C083EF8E
:1018A00091E050C0EF5FDCCF309368002093670079
:1018B0003F932F938BEF91E09F938F938E010F5F58
:1018C0001F4F1F930F930E94250FC8010E94870A84
:1018D0000F900F900F900F900F900F9035C0203207
:1018E00069F48091670090916800009711F00E9460
:1018F000C10581E092E00E94870A26C0253621F4C6
:1019000081E08093620020C0273729F410926200A2
:101910000E94950319C0213729F4109262000E9499
:10192000A80312C0213661F481E080936200109216
:101930001D0280E89BE090936A008093690004C0D8
:1019400089E092E00E942D0B28960FB6F894DEBF36
:101950000FBECDBFDF91CF911F910F910895CF930F
:10196000DF93CDB7DEB72D970FB6F894DEBF0FBE6D
:10197000CDBF0E942801882329F0CE0101960E9444
:10198000A801F7CF2D960FB6F894DEBF0FBECDBFDE
:10199000DF91CF9108950F931F93CF93DF93CDB72E
:1019A000DEB764970FB6F894DEBF0FBECDBF0E94BE
:1019B0000D079F938F9382E192E09F938F938E0107
:1019C0000F5F1F4F1F930F930E94250FC8010E94A6
:1019D000870A0F900F900F900F900F900F906496C2
:1019E0000FB6F894DEBF0FBECDBFDF91CF911F9130
:1019F0000F9108950E9462090E94870980911D023B
:101A0000882371F08091880291E0980F909388026A
:101A1000893230F0109288020E94CB0C0C94870916
:101A20000895CF93DF931F92CDB7DEB7A09AA19A06
:101A3000A898A99884B7898314BE11BC78940E9491
:101A400023090E9404070E94B6050E94A3070E9472
:101A500056050E9466086C3D75408105910518F495
:101A60000E94AF0CF6CF41E0BE016F5F7F4F84EF65
:101A70000E940A0A0E94A4070E94FA0C0E94E20631
:101A80000E940704F7CFD4D008F481E008950CD069
:101A90000AC102D140F0F9D030F021F45F3F19F0D3
:101AA000EBC0511134C1EEC00FD198F39923C9F3A3
:101AB0005523B1F3951B550BBB27AA276217730754
:101AC000840738F09F5F5F4F220F331F441FAA1F08
:101AD000A9F333D00E2E3AF0E0E830D091505040C8
:101AE000E695001CCAF729D0FE2F27D0660F771F76
:101AF000881FBB1F261737074807AB07B0E809F058
:101B0000BB0B802DBF01FF2793585F4F2AF09E3FEC
:101B1000510568F0B1C0FBC05F3FECF3983EDCF3C9
:101B2000869577956795B795F7959F5FC9F7880F65
:101B3000911D9695879597F90895E1E0660F771FB7
:101B4000881FBB1F621773078407BA0720F0621B48
:101B5000730B840BBA0BEE1F88F7E0950895BCD089
:101B600088F09F5790F0B92F9927B751A0F0D1F086
:101B7000660F771F881F991F1AF0BA95C9F712C010
:101B8000B13081F0C3D0B1E00895C0C0672F782F85
:101B90008827B85F39F0B93FCCF38695779567957C
:101BA000B395D9F73EF490958095709561957F4FE8
:101BB0008F4F9F4F0895E89409C097FB3EF490958E
:101BC0008095709561957F4F8F4F9F4F9923A9F016
:101BD000F92F96E9BB279395F695879577956795A5
:101BE000B795F111F8CFFAF4BB0F11F460FF1BC0E9
:101BF0006F5F7F4F8F4F9F4F16C0882311F096E97C
:101C000011C0772321F09EE8872F762F05C0662329
:101C100071F096E8862F70E060E02AF09A95660FE2
:101C2000771F881FDAF7880F9695879597F908959B
:101C3000990F0008550FAA0BE0E8FEEF16161706DD
:101C4000E807F907C0F012161306E407F50798F045
:101C5000621B730B840B950B39F40A2661F0232B5E
:101C6000242B252B21F408950A2609F4A140A695DA
:101C70008FEF811D811D089597F99F6780E870E0BF
:101C800060E008959FEF80EC089500240A941616F2
:101C9000170618060906089500240A94121613065A
:101CA000140605060895092E0394000C11F48823E8
:101CB00052F0BB0F40F4BF2B11F460FF04C06F5F04
:101CC0007F4F8F4F9F4F089557FD9058440F551FDA
:101CD00059F05F3F71F04795880F97FB991F61F0AE
:101CE0009F3F79F087950895121613061406551F25
:101CF000F2CF4695F1DF08C0161617061806991F91
:101D0000F1CF86957105610508940895E894BB2785
:101D100066277727CB0197F908958ADF08F48FEFBC
:101D200008950BD0C0CFB1DF28F0B6DF18F09523AF
:101D300009F0A2CFA7CF1124EACFC6DFA0F3959F69
:101D4000D1F3950F50E0551F629FF001729FBB27A2
:101D5000F00DB11D639FAA27F00DB11DAA1F649F4E
:101D60006627B00DA11D661F829F2227B00DA11D01
:101D7000621F739FB00DA11D621F839FA00D611D87
:101D8000221F749F3327A00D611D231F849F600DA8
:101D9000211D822F762F6A2F11249F5750408AF0E1
:101DA000E1F088234AF0EE0FFF1FBB1F661F771F6D
:101DB000881F91505040A9F79E3F510570F05CCFAD
:101DC000A6CF5F3FECF3983EDCF386957795679559
:101DD000B795F795E7959F5FC1F7FE2B880F911D8B
:101DE0009695879597F90895AA1BBB1B51E107C0EB
:101DF000AA1FBB1FA617B70710F0A61BB70B881F9B
:101E0000991F5A95A9F780959095BC01CD01089529
:101E100097FB072E16F4009407D077FD09D00E9497
:101E2000F40E07FC05D03EF4909581959F4F0895E0
:101E3000709561957F4F0895FB01DC0102C0019010
:101E40000D9241505040D8F70895AEE0B0E0EBE27B
:101E5000FFE00C94CD110D891E8986E08C831A83D6
:101E600009838FEF9FE79E838D83AE01475E5F4FAF
:101E70006F89788DCE0101960E94470FEF81F8851A
:101E8000E00FF11F10822E96E4E00C94E911ACE013
:101E9000B0E0EDE4FFE00C94BF117C016B018A011E
:101EA000FC0117821682838181FFBDC1CE0101969C
:101EB0004C01F7019381F60193FD859193FF819188
:101EC0006F01882309F4ABC1853239F493FD859104
:101ED00093FF81916F01853229F4B70190E00E9450
:101EE0002F11E7CF512C312C20E02032A0F48B327F
:101EF00069F030F4803259F0833269F420612CC0EB
:101F00008D3239F0803339F4216026C0226024609C
:101F100023C0286021C027FD27C030ED380F3A309C
:101F200078F426FF06C0FAE05F9E300D1124532E90
:101F300013C08AE0389E300D1124332E20620CC06D
:101F40008E3221F426FD6BC1206406C08C3611F45C
:101F5000206802C0883641F4F60193FD859193FF15
:101F600081916F018111C1CF982F9F7D955493303E
:101F700028F40C5F1F4FFFE3F9830DC0833631F067
:101F8000833771F0833509F05BC022C0F80180818E
:101F900089830E5F1F4F44244394512C540115C074
:101FA0003801F2E06F0E711CF801A080B18026FFAD
:101FB00003C0652D70E002C06FEF7FEFC5012C8775
:101FC0000E9424112C0183012C852F77222E17C00B
:101FD0003801F2E06F0E711CF801A080B18026FF7D
:101FE00003C0652D70E002C06FEF7FEFC5012C8745
:101FF0000E9419112C012C852068222E830123FCBC
:102000001BC0832D90E048165906B0F4B70180E25A
:1020100090E00E942F113A94F4CFF50127FC8591AE
:1020200027FE81915F01B70190E00E942F113110CE
:102030003A94F1E04F1A51084114510471F7E5C088
:10204000843611F0893639F5F80127FF07C0608121
:102050007181828193810C5F1F4F08C06081718103
:10206000882777FD8095982F0E5F1F4F2F76B22E11
:1020700097FF09C090958095709561957F4F8F4F20
:102080009F4F2068B22E2AE030E0A4010E94611127
:10209000A82EA81844C0853729F42F7EB22E2AE036
:1020A00030E025C0F22FF97FBF2E8F36C1F018F433
:1020B000883579F0B4C0803719F0883721F0AFC087
:1020C0002F2F2061B22EB4FE0DC08B2D8460B82E50
:1020D00009C024FF0AC09F2F9660B92E06C028E0D1
:1020E00030E005C020E130E002C020E132E0F8013C
:1020F000B7FE07C060817181828193810C5F1F4FA1
:1021000006C06081718180E090E00E5F1F4FA401E6
:102110000E946111A82EA818FB2DFF77BF2EB6FED6
:102120000BC02B2D2E7FA51450F4B4FE0AC0B2FCB8
:1021300008C02B2D2E7E05C07A2C2B2D03C07A2CA7
:1021400001C0752C24FF0DC0FE01EA0DF11D808138
:10215000803311F4297E09C022FF06C07394739462
:1021600004C0822F867809F0739423FD13C020FFEA
:1021700006C05A2C731418F4530C5718732C73148C
:1021800068F4B70180E290E02C870E942F117394CD
:102190002C85F5CF731410F4371801C0312C24FFAF
:1021A00012C0B70180E390E02C870E942F112C858C
:1021B00022FF17C021FF03C088E590E002C088E736
:1021C00090E0B7010CC0822F867859F021FD02C043
:1021D00080E201C08BE227FD8DE2B70190E00E9412
:1021E0002F11A51438F4B70180E390E00E942F115D
:1021F0005A94F7CFAA94F401EA0DF11D8081B7013A
:1022000090E00E942F11A110F5CF332009F451CE98
:10221000B70180E290E00E942F113A94F6CFF701C7
:102220008681978102C08FEF9FEF2C96E2E10C949C
:10223000DB11FC010590615070400110D8F78095CA
:1022400090958E0F9F1F0895FC0161507040019082
:102250000110D8F7809590958E0F9F1F08950F93CA
:102260001F93CF93DF93182F092FEB018B8181FDF3
:1022700003C08FEF9FEF20C082FF10C04E815F81AF
:102280002C813D81421753077CF4E881F9819F013D
:102290002F5F3F4F39832883108306C0E885F98577
:1022A000812F0995892B29F72E813F812F5F3F4F81
:1022B0003F832E83812F902FDF91CF911F910F911C
:1022C0000895FA01AA27283051F1203181F1E894CC
:1022D0006F936E7F6E5F7F4F8F4F9F4FAF4FB1E019
:1022E0003ED0B4E03CD0670F781F891F9A1FA11D14
:1022F000680F791F8A1F911DA11D6A0F711D811D15
:10230000911DA11D20D009F468943F912AE0269FD9
:1023100011243019305D3193DEF6CF010895462F38
:102320004770405D4193B3E00FD0C9F7F6CF462F19
:102330004F70405D4A3318F0495D31FD4052419382
:1023400002D0A9F7EACFB4E0A6959795879577953F
:102350006795BA95C9F700976105710508959B01C6
:10236000AC010A2E06945795479537952795BA954F
:10237000C9F7620F731F841F951FA01D08952F9228
:102380003F924F925F926F927F928F929F92AF9205
:10239000BF92CF92DF92EF92FF920F931F93CF9352
:1023A000DF93CDB7DEB7CA1BDB0B0FB6F894DEBFE9
:1023B0000FBECDBF09942A88398848885F846E840F
:1023C0007D848C849B84AA84B984C884DF80EE8059
:1023D000FD800C811B81AA81B981CE0FD11D0FB662
:1023E000F894DEBF0FBECDBFED010895F894FFCF86
:1023F0004A0101010101002100800B456E61626C00
:10240000650043616E6E6F7420736574206D617832
:1024100020766F6C746167650043726974696361EB
:102420006C206572726F722E20426F6F73746572CA
:102430002064697361626C65642100537570706C0F
:102440007920766F6C7461676520697320746F6F93
:10245000206C6F772E20426F6F73746572206469F1
:102460007361626C65642E00537570706C792076B0
:102470006F6C7461676520697320746F6F206C6F77
:10248000772E005265656E61626C6520626F6F73B6
:102490007465722E00436865636B206361626C65CE
:1024A000206265747765656E2052654B69636B20A9
:1024B000616E6420626F6F7374657221004368619E
:1024C0007267696E6720746F6F6B20746F6F206C1A
:1024D0006F6E672E204C6F636B2052654B69636B88
:1024E000210041206469736162004120656E616270
:1024F0000043616E6E6F742072656163682074685A
:10250000697320766F6C74616765004B69636B203B
:102510006A6F6220657870697265642E0043616E2F
:102520006E6F74206B69636B2E20426F6F737465DE
:1025300072207374617465206973206469736162C9
:102540006C65642E004B69636B74696D653A202578
:1025500075206D7300524B312E31006D616E7561C7
:102560006C00436F6D6D616E64206E6F7420696DD9
:10257000706C656D656E746564004552522044410F
:10258000544500455252204E414E006E7425640A57
:102590000052656C656173650045525220494D508B
:0625A0004C00256456000A
:00000001FF
