:100000000C9446000C9465000C9465000C946500FB
:100010000C9465000C9465000C9465000C9497009A
:100020000C9465000C9465000C9465000C946500BC
:100030000C9465000C9465000C9465000C946500AC
:100040000C9470000C9465000C946F0C0C94990C3B
:100050000C9465000C9465000C9465000C9465008C
:100060000C9465000C9465000C9465000C9465007C
:100070000C9465000C9465000C941F0D0C944B0DB2
:100080000C9465000C9465000C94650011241FBE4F
:10009000CFEFD0E1DEBFCDBF11E0A0E0B1E0EEE7F1
:1000A000F1E200E00BBF02C007900D92AC31B10746
:1000B000D9F71AE0ACE1B1E001C01D92A533B10758
:1000C000E1F70E94A8000C94BE100C94000087E099
:1000D00083BF81E087BF10921C0110921D0108951B
:1000E0001F920F920FB60F9211246F937F938F93ED
:1000F0009F9380911D018F5F80931D016AE00E9494
:100100009E10992331F48091620098E089278093B2
:10011000620080911C018F5F80931C019F918F91E1
:100120007F916F910F900FBE0F901F9018951F92A7
:100130000F920FB60F9211248F9380911E018F5F43
:1001400080931E018F910F900FBE0F901F901895F6
:10015000CFEFD0E1DEBFCDBF0E945D0688E0809387
:100160006100809162008860809362000E94600656
:100170000E9488090E94FD0287E083BF81E087BF5B
:1001800010921C0110921D01789485E080931E014D
:100190008AB780618ABF89B7806489BF789480E11B
:1001A00090E00E94750D80E190E00E94BE0CFF245B
:1001B000C0E0D1E00E948C010E944A0180911E01A2
:1001C000815080931E018F3F11F00E94F5010E9423
:1001D0001306909325048093240480912404909125
:1001E0002504892B21F5809101048823A1F08091B9
:1001F0001C016AE00E949E10992369F44091020458
:100200005091030464E070E0CE010E94CE080E9489
:100210009D090E942E0680911C018F3158F2F394A3
:1002200088ECF81639F60E945B09FF24C3CF0091D1
:1002300041041091420480E098E00E941B070817D7
:10024000190779F40E94B90B81E00E94230780917D
:10025000240490912504892B09F4ACCF0E949D09B8
:1002600015C0009141041091420486E098E00E947C
:100270001B070817190709F09DCF0E941C0B8091DE
:10028000240490912504892B09F494CF0E942E0612
:1002900091CF08950E94910D90FD3DC093FD3BC00C
:1002A00092FD39C091FD37C00097A9F18A309105C0
:1002B00019F08D309105F9F480912201882319F00D
:1002C0001092220115C060912301662321F1772746
:1002D000FB01EC5DFE4F1082409104045091050437
:1002E00084E291E00E94CE080E949D090E942E06A1
:1002F000109223010895209123012F3F21F481E0E2
:10030000809322010895E22FFF27EC5DFE4F80834A
:100310002F5F209323010895CF93DF930E94D70C82
:10032000EC018091200190912101892BA1F4CB3720
:10033000D105D1F580911F018823B1F581E090E0CE
:1003400090932101809320018BE78093250281E027
:100350008093240229C080912402E82FFF27EB5DBF
:10036000FD4FC083682F6F5F60932402CD37D105A6
:10037000D9F480911F018823B9F47727FB01EB5D45
:10038000FD4F1082409106045091070485E292E0EF
:100390000E94CE080E949D090E942E0610922402FF
:1003A000109221011092200180911F01882319F0E1
:1003B00010921F0106C0CC35D10519F481E080935D
:1003C0001F0160912402662369F040910604509158
:1003D0000704772785E292E00E94CE080E949D09DB
:1003E0000E942E06DF91CF9108950E94290E882346
:1003F00091F087E194E00E943D0F409108045091F4
:1004000009046FE070E087E194E00E94CE080E944A
:100410009D090E942E06089580912C0481FD04C040
:1004200080912C0482FFE8C020912D0430912E048D
:1004300080910604909107042817390751F48091A0
:100440002F049091300490931604809315040E9419
:10045000040D40912D0450912E048091040490913C
:1004600005044817590759F480912F0490913004DE
:1004700090931604809315040E94C20D08958091F4
:100480000804909109044817590759F480912F04E2
:100490009091300490930D0480930C040E94420EBE
:1004A000089580910204909103044817590709F0B8
:1004B000A3C0E0912F04F091300480818D3409F4C1
:1004C00061C08E3478F48334F9F0843420F48134BC
:1004D00009F092C031C0853409F472C0893409F042
:1004E0008BC048C08235D9F1833520F4803509F0BE
:1004F00083C006C0833581F1883509F07DC07AC09C
:1005000080818F5F80831DC08DE20E94F40D8093F7
:1005100025038CE10E94F40D809326038DE10E9457
:10052000F40D809327031092280340910204509108
:10053000030464E070E03BC080818F5F80830E9491
:100540008809409102045091030461E070E08091B9
:100550002F04909130042DC0E0E0F0E00994F8946D
:1005600088E190E028E00FB6F894A89581BD0FBE11
:1005700021BDFFCF0E94421040E060EE8FE00E945C
:10058000070E089590E00BC0E92FFF27DF011296B8
:100590000E94AA10802DEB5DFC4F80839F5F9630F8
:1005A00098F39093140410922B0366E070E085E2B8
:1005B00093E00E94CE080E949D090E942E06089595
:1005C0001092140412C0E0912F04F091300431967F
:1005D000BB27EA0FFB1F80811296082E0E94B210E3
:1005E000809114048F5F80931404A0911404A630AA
:1005F00050F308951092010408950F931F93CF9321
:10060000DF93CDB7DEB722970FB6F894DEBF0FBEEB
:10061000CDBF80EC98EA9A83898380E095E09C8343
:100620008B8360E177E28E010F5F1F4FC8010E944C
:10063000E006909303048093020461E177E2C8012D
:100640000E94E006909307048093060462E177E23B
:10065000C8010E94E006909305048093040463E1BE
:1006600077E2C8010E94E006909309048093080491
:100670000E94421040E060EE8FE00E94070E409121
:1006800004045091050464E070E085E091E00E946C
:10069000CE080E949D090E942E0610920104229607
:1006A0000FB6F894DEBF0FBECDBFDF91CF911F9183
:1006B0000F91089595B3907E982B95BB8FEF8ABBD1
:1006C0006BBBAE9800000000AE9A1ABA8BBB0895BF
:1006D00095B3907E982B95BBAD980000000089B330
:1006E000AD9A9927089584B38F6184BB8FEF8BBB3C
:1006F000A59AA69AAD9AAE9AA79A08950F931F93BA
:10070000CF93DF93EC018C01CC9710F4CCE3D0E0D5
:1007100062E280E00E945A0380E00E94680382FD4A
:10072000FBCF60E484E00E945A0360E088E00E940E
:100730005A0360E489E00E945A0362E087E00E9465
:100740005A03602F8AE00E945A03612F77278BE0BB
:100750000E945A036C2F85E00E945A036D2F772761
:1007600086E00E945A0362E180E00E945A03DF9112
:10077000CF911F910F910895EF92FF920F931F93C6
:10078000CF93DF937C018B01C0E0D0E008C0F7017C
:10079000EC0FFD1F608180E10E945A032196C01773
:1007A000D107A9F7DF91CF911F910F91FF90EF90A3
:1007B000089564E280E00E945A0360E487E00E94AA
:1007C0005A030895CF92DF92EF92FF920F931F93F7
:1007D000CF93DF936C018B018AE00E945A03612F53
:1007E00077278BE00E945A03E0903A03F0903B0396
:1007F0006E2D88E00E945A036F2D772789E00E94B2
:100800005A036AE080E00E945A03C0E0D0E008C0CA
:1008100080E10E946803F601EC0FFD1F80832196A2
:10082000C017D107A9F762E280E00E945A03C0E036
:10083000D0E087E00E94680386FD04C02196C531A0
:10084000D105B9F760E487E00E945A03B8016E0D44
:100850007F1D70933B0360933A0380E66030780716
:1008600030F060507A4170933B0360933A03DF911C
:10087000CF911F910F91FF90EF90DF90CF9008954F
:100880001F9362E280E00E945A0310E087E00E941A
:10089000680386FD03C01F5F1531C1F760E487E080
:1008A0000E945A036091390383E00E945A031F910A
:1008B0000895EF92FF921F93CF93DF93CDB7DEB7EA
:1008C00026970FB6F894DEBF0FBECDBF0E9473030C
:1008D000AF9A8AE00E940A06AF9884E10E940A0655
:1008E00061EE80E00E945A0360EC81E00E945A03AE
:1008F00060E285E00E945A0360E086E00E945A03AD
:1009000084E10E940A0620E030E07E010894E11CA8
:10091000F11CD90112960E94AA10802DF701E20F56
:10092000F31F80832F5F3F4F2630310591F760E042
:1009300081E00E945A0361E280E00E945A0382E053
:100940000E940A0668E58EE00E945A0360E08AE091
:100950000E945A0360E08BE00E945A0364E08CE03E
:100960000E945A0360E484E00E945A0362E08DE032
:100970000E945A0366E481E00E945A0366E483E021
:100980000E945A0360E682E00E945A0361E680E01A
:100990000E945A0382E00E940A0666E487E00E94F1
:1009A0005A0361E680E00E945A0310E01F5FF701DE
:1009B00061917F01812F0E945A031630B9F7898116
:1009C000809316018A81809317018B81809318018F
:1009D0008C81809319018D8180931A018E8180937F
:1009E0001B0161E280E00E945A0368E58EE00E94EC
:1009F0005A0362E280E00E945A036FEF87E00E9490
:100A00005A0361E18FE00E945A0360E08DE00E948A
:100A10005A0362E280E00E945A0326960FB6F894C9
:100A2000DEBF0FBECDBFDF91CF911F91FF90EF9042
:100A300008951F9380E00E946803182F61E280E010
:100A40000E945A0382E00E940A0660E08AE00E9447
:100A50005A0360E08BE00E945A0312FF0AC087E04D
:100A60000E946803992781FD04C083FD02C011E044
:100A700001C010E062E08DE00E945A0362E280E073
:100A80000E945A0366E483E00E945A0362E680E013
:100A90000E945A0366E487E00E945A0362E280E003
:100AA0000E945A0360E187E00E945A0360E08DE0F3
:100AB0000E945A03112321F066E280E00E945A034B
:100AC0006FEF87E00E945A031F91089587E00E940C
:100AD000680384FF02C00E9419050895DF92EF9217
:100AE000FF920F931F93CF93DF93CDB7DEB7249779
:100AF0000FB6F894DEBF0FBECDBF0E94660562E65A
:100B000080E00E945A0387E00E946803182F62E287
:100B100080E00E945A0383E00E946803D82E811768
:100B200009F468C061E087E00E945A038D2D865465
:100B30008A3188F066E483E00E945A0362E680E02E
:100B40000E945A0366E487E00E945A0362E280E052
:100B50000E945A034FC064E08AE00E945A0360E09A
:100B60008BE00E945A0360E088E00E945A036D2DDA
:100B700089E00E945A036AE080E00E945A038E01D5
:100B80000F5F1F4F75E0E72EF12CEC0EFD1E80E18C
:100B90000E946803F80181938F01EE15FF05B9F7F4
:100BA00062E280E00E945A0310E087E00E9468033E
:100BB00086FD03C01F5F1531C1F760E487E00E9426
:100BC0005A033C814B812A81209339038D2D99272B
:100BD000982F8827049690933B0380933A032654DA
:100BE0002A3140F4832F9927982F8827840F911D4D
:100BF000049702C080E090E024960FB6F894DEBF20
:100C00000FBECDBFDF91CF911F910F91FF90EF905D
:100C1000DF90089520EA3FE0E22FF32F3197F1F7BC
:100C20008A95D1F70895CF93DF930E946E05EC016A
:100C3000892B81F085E0CD3DD80728F00E94400443
:100C4000C0E0D0E007C0BE0185E394E00E94E2036B
:100C50000E944004CE01DF91CF9108958091240439
:100C6000909125040E947E03809124049091250494
:100C7000C79738F4609124047091250485E394E0CB
:100C800017C08091240490912504C6979093250461
:100C90008093240466E370E085E394E00E94BC0343
:100CA000609124047091250480912F049091300468
:100CB0000E94BC030E94D90308950E94590408951C
:100CC00080E094E090933F0380933E0380E00CC06B
:100CD000E82FFF2793E0EE0FFF1F9A95E1F7EB5EF9
:100CE000F54F158214828F5F843090F38093400318
:100CF0000895CF93DF93DC0120913E0330913F03B1
:100D00002F5F3F4F8DE72030380710F020E030E1B3
:100D100040E050E00FC04F5F5F4FFF2793E0EE0FC2
:100D2000FF1F9A95E1F7EB5EF54F8481958182175D
:100D3000930731F3E42F4430510569F730933F03B3
:100D400020933E031092400340E015C0542F5F5F94
:100D5000E42FFF2783E0EE0FFF1F8A95E1F7EB5E9C
:100D6000F54F84819581892B29F440934003309776
:100D700049F422C0452F443048F340934003E0E05B
:100D8000F0E01AC0832F9927322F2227822B932B32
:100D900095838483872F9927362F2227822B932BA5
:100DA000978386838D919C91119791838083ED0128
:100DB0008A819B8193838283CF01DF91CF910895B4
:100DC000CF93DF93DC011092400340E015C0242F45
:100DD0002F5FE42FFF2753E0EE0FFF1F5A95E1F737
:100DE000EB5EF54F84819581892B29F44093400374
:100DF000309749F41CC0422F443048F340934003DD
:100E0000E0E0F0E014C0872F9927362F2227822BAD
:100E1000932B95838483978386838D919C911197DF
:100E200091838083ED018A819B8193838283CF01AB
:100E3000DF91CF9108959C01892F9927322F222786
:100E4000822B932B08950F931F93CF93DF93CBE6C1
:100E5000D4E0D0933004C0932F048330F9F4E091B0
:100E60002D04F0912E0484819581892B09F48DC184
:100E70002C97D0933004C0932F042C961092140A10
:100E80001092130A8091130A9091140A90932504EA
:100E90008093240488E080932C04E7C08E010852DC
:100EA000104080914304853409F06FC120914504BE
:100EB00080912404909125043327892F992728179E
:100EC000390769F08091240490912504322F22275C
:100ED0009070282B392B30932504209324042091E3
:100EE000460480912404909125043327907028179C
:100EF000390759F080912404909125048070282BA3
:100F0000392B309325042093240480914904992798
:100F10008F739070892B09F038C180914A0488231F
:100F200009F033C18091530490915404805C984A35
:100F300009F02BC180915504909156048050924045
:100F400009F023C10E94680C8F5F9F4F09F01DC1FB
:100F500080914C048131B9F1813009F016C1809142
:100F60005704883009F011C1109257048091590438
:100F700090915A042FEF873F920710F0099601C015
:100F8000089690935A048093590420915304309109
:100F9000540480914F0490915004F801918B808B00
:100FA00035872487209155043091560430934203AD
:100FB000209341038091510490915204938B828B32
:100FC00037872687E6C085E19AE090932E048093C8
:100FD0002D042CC0248135812115310511F180911A
:100FE000590490915A0482179307D9F42091570419
:100FF00030915804868197812817390791F4209100
:101000004F0430915004808191812817390749F4A9
:10101000209151043091520482819381281739071D
:1010200071F03896F0932E04E0932D04E0912D0496
:10103000F0912E042AE0E533F20760F2A6C0809119
:101040002404909125044C979093250480932404C4
:101050008FE594E09093300480932F0482E0809396
:101060002C041092140A1092130A0E940C02809110
:10107000130A9091140A892B09F487C08091130AEE
:101080009091140A4C9690932504809324048091A7
:10109000240490912504892F9927809345048091F9
:1010A0002404909125048093460481E180934C04AC
:1010B0002091130A3091140A8091130A9091140A16
:1010C0000896892F9927285F3F4F322F2227822B9E
:1010D000932B90935C0480935B0410925E041092B7
:1010E0005D04E0912D04F0912E048481958190930C
:1010F0005804809357048681978190935A04809373
:10110000590480EC98EA9093500480934F0480E057
:1011100092E0909352048093510480819181909346
:101120005404809353048281938190935604809356
:101130005504D0933004C0932F0485E48093430476
:101140001092440410924A04109249048FEF809345
:101150004B0480913C0390913D03019690933D0395
:1011600080933C03292F332720934704809348041E
:1011700010924E0410924D040E94680C8095909538
:1011800090934E0480934D0404C010922504109255
:101190002404DF91CF911F910F910895CF93DF9396
:1011A000DC01FA0150932E0440932D04645E7F4FBE
:1011B00070932504609324046C517040C3E4D4E020
:1011C0008091240490912504892F992780934504C8
:1011D00080912404909125048093460481E18093BA
:1011E0004C04CB010896292F3327982F8827282BCA
:1011F000392B30935C0420935B0410925E041092B0
:101200005D0484819581909358048093570486816E
:10121000978190935A048093590480EC98EA9093B4
:10122000500480934F0480E092E0909352048093A6
:10123000510480819181909354048093530482815E
:101240009381909356048093550420E030E00AC0C7
:10125000FD01E20FF31F8081F901EB5CFB4F82A7D8
:101260002F5F3F4F261737079CF38BE694E0909350
:10127000300480932F0485E48093430419821F82F5
:101280001E828FEF888780913C0390913D030196E9
:1012900090933D0380933C03292F33272C838D8328
:1012A0001B861A860E94680C809590959B878A877A
:1012B000DF91CF910895809175038F5F80937503BF
:1012C0001092730320C08BE0289FF0011124ED5B86
:1012D000FC4F8281938120813181822B932B892B3A
:1012E00069F08091750399272285821B91098837BF
:1012F000910524F01082118212821382809173036F
:101300008F5F80937303209173032430E0F208957C
:10131000109273030DC0EBE08E9FF0011124ED5B82
:10132000FC4F10821182128213828F5F80937303AD
:1013300080917303843078F30895CF93DF93E09125
:101340005304F09154048091120190911301C091C3
:101350000A01D0910B019C012E233F238C239D2356
:1013600028173907A1F460915504709156048091B3
:10137000140190911501AC014623572320910C01D3
:1013800030910D01822393234817590789F08091EA
:101390000E0190910F019093700380936F038091E1
:1013A000100190911101909372038093710308C012
:1013B000F0937003E0936F03709372036093710373
:1013C0001092730360916F037091700340917103E9
:1013D0005091720320E014C08BE0289FF00111248B
:1013E000ED5BFC4F808191816817790741F4828120
:1013F00093814817590719F42093730369C02F5F2D
:10140000243050F320937303243009F061C046E088
:1014100050E06FEF70E085E394E00E949710E5E5FF
:10142000F4E086E0DF011D928A95E9F77A97A6E15C
:10143000B1E086E00D9001928150E1F7ABE4B4E0B9
:10144000E6E1F1E086E001900D928150E1F78091B4
:101450006F039091700390935C0480935B04809180
:1014600071039091720390935E0480935D04D09316
:101470005204C093510480910C0190910D019093FE
:1014800054048093530480E091E090934A04809345
:101490004904909344048093430488E090E090933F
:1014A00046048093450486E08093470484E080935B
:1014B000480488E096E090934204809341048BE6D0
:1014C00094E09093300480932F048AE290E01CC053
:1014D000A5E3B4E0349686E001900D928150E1F7E7
:1014E000ABE3B4E0E6E1F1E086E001900D928150DB
:1014F000E1F788E090E0E5E3F4E095878487809168
:101500002404909125040E9690932504809324043E
:10151000DF91CF910895EF92FF921F93CF93DF93C6
:10152000DC017B011092730310E028C08BE0189F50
:10153000E0011124CD5BDC4F4881598141155105F3
:10154000E1F02A813B8121153105B9F08D919C9103
:1015500011978417950789F4FD0182819381821781
:10156000930759F410937303DE011496F70186E094
:1015700001900D928150E1F756C01F5F1430B0F218
:101580001092730320E012C08BE0289FE001112429
:10159000CD5BDC4F88819981892B39F48A819B81CD
:1015A000892B19F4209373032EC02F5F243060F32E
:1015B00020937303243039F510927603109274034C
:1015C00010917503612F7727F0E0E0E050E013C041
:1015D0008BE0589FE0011124CD5BDC4F4A859B01D5
:1015E000241B31098E2F9927821793071CF4E12FB2
:1015F000E41BF52F5F5F543058F3F0937403E093CE
:101600007603F09373038D919D910D90BC91A02D65
:10161000FE0181939193A193B193D70186E00D9040
:1016200001928150E1F7809175038A87DF91CF9114
:101630001F91FF90EF900895CF93DF938091240442
:10164000909125048A9728F410922504109224047E
:101650008DC01092250410922404A5E3B4E080917B
:10166000490490914A0421E08030920729F080508B
:10167000924009F07BC05EC040915B0450915C04D5
:1016800080910A0190910B014817590709F06EC02B
:1016900020915D0430915E0480910C0190910D01C8
:1016A0002817390709F062C080E092E090934A045D
:1016B00080934904ED01A096FD01769686E00190A5
:1016C00009928150E1F7CBE4D4E0E6E1F1E086E075
:1016D000019009928150E1F7CBE3D4E0E6E1F1E03B
:1016E00086E0019009928150E1F7E5E3F4E0EF0133
:1016F000A09686E0099001928150E1F78091510413
:1017000090915204FD0197A386A380915304909178
:10171000540491A780A7558F448F378F268F88E078
:1017200096E0958784878AE290E0909325048093E1
:1017300024041CC020915B0430915C0480910A0158
:1017400090910B012817390789F420915D0430919D
:101750005E0480910C0190910D012817390731F436
:101760006BE474E081E594E00E948B0ADF91CF91F5
:10177000089580912404909125040E979093250458
:1017800080932404809112019091130120914F04C1
:10179000309150042823392340910A0150910B01C4
:1017A0008423952328173907C9F480911401909157
:1017B000150120915104309152042823392340917E
:1017C0000C0150910D01842395232817390731F41A
:1017D0006BE374E08FE494E00E948B0A0895FC01AF
:1017E0008381860F80932B04272F33278281820FDA
:1017F00080932A0481818093290480818093280426
:1018000080912A0499278217930770F48091290404
:101810008F5F8093290480912904882329F4809183
:1018200028048F5F8093280480912B04992770707F
:1018300086179707B8F480912A048F5F80932A0453
:1018400080912A04882371F4809129048F5F80930A
:10185000290480912904882329F4809128048F5F2A
:101860008093280408950F931F93CF93DF938C01E7
:10187000C0E0D0E00DC0F80180819181C80FD91F70
:10188000C817D90708F421960E5F1F4F62507040A9
:101890006230710580F761307105A1F4F801808133
:1018A0009927982F88270E941B07C80FD91FF80176
:1018B00080819927982F88270E941B07C817D9076E
:1018C00008F42196CE01DF91CF911F910F910895D9
:1018D00064E170E083E494E00E94330C08951F9269
:1018E0000F920FB60F9211242F938F939F93EF9324
:1018F000FF939BB12CB1E091B903EF5FEF71809141
:10190000BA03E81711F482E008C0892F8871E093C8
:10191000B903FF27E956FC4F20838093BB03FF9157
:10192000EF919F918F912F910F900FBE0F901F906D
:1019300018951F920F920FB60F9211248F939F93B9
:10194000EF93FF939091B7038091B803981761F0DC
:10195000E091B803EF5FEF71E093B803FF27E95818
:10196000FC4F80818CB901C05598FF91EF919F91F8
:101970008F910F900FBE0F901F9018959C011092A1
:10198000B7031092B8031092B9031092BA0397FFED
:1019900003C082E08BB93F77832F99278093900013
:1019A00029B988E98AB986E08093950008959091D5
:1019B000B9038091BA03981719F480E091E0089573
:1019C000E091BA03EF5FEF71E093BA03FF27E956A6
:1019D000FC4F20818091BB039927982F8827820F85
:1019E000911D0895282F9091B7039F5F9F7180915B
:1019F000B8039817E1F3E92FFF27E958FC4F20833C
:101A00009093B703559A0895CF93DF93EC0103C0E9
:101A100021960E94F20C88818823D1F7DF91CF9123
:101A20000895CF93DF93EC0102C00E94F20CFE01F7
:101A3000219684918823C9F7DF91CF9108951F9251
:101A40000F920FB60F9211242F938F939F93EF93C2
:101A5000FF9390919B0020919C00E091FE03EF5F2B
:101A6000EF718091FF03E81711F482E008C0892F1D
:101A70008871E093FE03FF27E452FC4F208380939C
:101A80000004FF91EF919F918F912F910F900FBEC6
:101A90000F901F9018951F920F920FB60F9211245E
:101AA0008F939F93EF93FF939091FC038091FD039D
:101AB000981769F0E091FD03EF5FEF71E093FD038C
:101AC000FF27E454FC4F808180939C0005C08091E7
:101AD0009A008F7D80939A00FF91EF919F918F9153
:101AE0000F900FBE0F901F9018959C011092FC0351
:101AF0001092FD031092FE031092FF0397FF04C0A3
:101B000082E080939B003F77832F992780939800F2
:101B10002093990088E980939A0086E080939D0045
:101B200008959091FE038091FF03981719F480E0C7
:101B300091E00895E091FF03EF5FEF71E093FF0301
:101B4000FF27E452FC4F2081809100049927982FB1
:101B50008827820F911D0895282F9091FC039F5F85
:101B60009F718091FD039817E1F3E92FFF27E4545B
:101B7000FC4F20839093FC0380919A0080628093B5
:101B80009A000895CF93DF93EC0103C021960E9441
:101B9000AC0D88818823D1F7DF91CF910895CF9341
:101BA000DF93EC0102C00E94AC0DFE0121968491EE
:101BB0008823C9F7DF91CF9108958FB9779BFECF26
:101BC0008FB199270895982FC09882E08FB9779B9D
:101BD000FECF8FB19FB9779BFECF8FB16FB9779B47
:101BE000FECF8FB1C09A0895982FC09883E08FB927
:101BF000779BFECF8FB19FB9779BFECF8FB18FEFD1
:101C00008FB9779BFECF8FB1C09A99270895982FEF
:101C1000C09885E08FB9779BFECF8FB19FB9779B36
:101C2000FECF8FB16FB9779BFECF8FB14FB9779B46
:101C3000FECF8FB1C09A0895C0988FB9779BFECF21
:101C40008FB18FEF8FB9779BFECF8FB1C09A992755
:101C5000089581B1992726E0969587952A95E1F711
:101C60008095909581709070089580EA0E941C0E76
:101C700090E08475843509F491E081E09827892FFC
:101C8000992708950F931F93CF93DF93CDB7DEB7B6
:101C900021970FB6F894DEBF0FBECDBF8C0180EA4E
:101CA0000E941C0E8983898182FD02C090E00CC0D5
:101CB000898184FD02C092E007C0898186FF03C04C
:101CC00080E090E04FC094E0C098892F80648FB985
:101CD000779BFECF8FB1F80180818FB9779BFECFC4
:101CE0008FB1F80181818FB9779BFECF8FB1F80159
:101CF00082818FB9779BFECF8FB1F80183818FB935
:101D0000779BFECF8FB1F8018481282F26952F7005
:101D100080FF06C020642FB9779BFECF8FB111C022
:101D20002FB9779BFECF8FB130E009C0F801E30FE8
:101D3000F11D85818FB9779BFECF8FB13F5F321741
:101D4000A9F7C09A85E08A95F1F7C098992309F41C
:101D500091E0892F80688FB9779BFECF8FB1C09AB1
:101D6000892F992721960FB6F894DEBF0FBECDBFFD
:101D7000DF91CF911F910F9108950F931F93CF93F0
:101D8000DF93CDB7DEB721970FB6F894DEBF0FBE55
:101D9000CDBF8C0180EA0E941C0E8983898182FD5F
:101DA00002C040E00CC0898184FD02C042E007C04F
:101DB000898186FF03C080E090E054C044E0C09871
:101DC000842F80648FB9779BFECF8FB1F80120817B
:101DD0003181C90133E0969587953A95E1F78FB93E
:101DE000779BFECF8FB1822F8295880F807E8FB92F
:101DF000779BFECF8FB11FB8779BFECF8FB11FB8F7
:101E0000779BFECF8FB1F8018281982F96959F70B6
:101E100080FF06C090649FB9779BFECF8FB111C041
:101E20009FB9779BFECF8FB120E009C0F801E20F88
:101E3000F11D83818FB9779BFECF8FB12F5F29175B
:101E4000A9F7C09A85E08A95F1F7C098442309F470
:101E500041E0842F80688FB9779BFECF8FB1C09A05
:101E6000842F992721960FB6F894DEBF0FBECDBF01
:101E7000DF91CF911F910F9108950F931F93CF93EF
:101E8000DF93CDB7DEB721970FB6F894DEBF0FBE54
:101E9000CDBF8C0180EB0E941C0E8983DE01119660
:101EA000898186FF02C080E907C0898187FD03C060
:101EB00080E090E056C084E9C0988FB9779BFECF50
:101EC0008FB18FEF8FB9779BFECF8FB1F8018083F1
:101ED0008FEF8FB9779BFECF8FB1F80181838FEFA2
:101EE0008FB9779BFECF8FB1F80182838FEF8FB9C7
:101EF000779BFECF8FB1F80183838FEF8FB9779BEC
:101F0000FECF4FB14F70342F330FF8012481207E64
:101F10008C91992753E0969587955A95E1F78170B2
:101F2000232B282B248390E00AC08FEF8FB9779B57
:101F3000FECF8FB1F801E90FF11D85839F5F9417E4
:101F4000A1F7C09A8C9186FF03C040E061E002C017
:101F500040E062E08CE20E94070E898187708F5F0B
:101F6000992721960FB6F894DEBF0FBECDBFDF9143
:101F7000CF911F910F9108950F931F93CF93DF93EC
:101F8000CDB7DEB721970FB6F894DEBF0FBECDBF39
:101F90008C0180EB0E941C0E8983DE0111968981E1
:101FA00086FF02C080E907C0898187FD03C080E009
:101FB00090E05DC084E9C0988FB9779BFECF8FB168
:101FC0008FEF8FB9779BFECF2FB18FEF8FB9779BB4
:101FD000FECF8FB18295869587709927332773E05E
:101FE000220F331F7A95E1F7822B932BF80191830F
:101FF00080838FEF8FB9779BFECF8FB18FEF8FB933
:10200000779BFECF8FB18FEF8FB9779BFECF4FB10C
:102010004F70342F330FF8012281207E8C91992745
:1020200063E0969587956A95E1F78170232B282BBD
:10203000228390E00AC08FEF8FB9779BFECF8FB1DC
:10204000F801E90FF11D83839F5F9417A1F7C09AF0
:102050008C9186FF03C040E061E002C040E062E096
:102060008CE20E94070E898187708F5F99272196E5
:102070000FB6F894DEBF0FBECDBFDF91CF911F9199
:102080000F910895C09AB89AC198C298C398B99A06
:10209000BA9ABB9816981E9A81E58DB91EB8C09859
:1020A00080EC8FB9779BFECF8FB1C09A85E38A957C
:1020B000F1F7C09882E08FB9779BFECF8FB188E2AD
:1020C0008FB9779BFECF8FB182E08FB9779BFECF20
:1020D0008FB180E98FB9779BFECF8FB11FB8779B07
:1020E000FECF8FB183E08FB9779BFECF8FB1C09ABF
:1020F0008AE20E94F40D882319F080E090E00895B0
:102100006FE08CE00E94E30D60E08DE00E94E30D43
:1021100060E680E60E94E30D60E680E70E94E30D42
:1021200060E08FE00E94E30D81E090E00895DC0123
:1021300001C06D9341505040E0F70895991B79E03C
:1021400004C0991F961708F0961B881F7A95C9F747
:1021500080950895E199FECFBFBBAEBBE09A119682
:102160000DB20895E199FECFBFBBAEBB0DBA11967B
:0E2170000FB6F894E29AE19A0FBE0895FFCFE1
:10217E00696E697400696E697400C0A80002C0A817
:0C218E000001FFFFFF00304646494345BA
:00000001FF
