:100000000C94BB000C94D8000C94D8000C94D8002D
:100010000C94D8000C94D8000C94D8000C94D80000
:100020000C94D8000C94D8000C94D8000C94D800F0
:100030000C94D8000C94D8000C94D8000C94D800E0
:100040000C94D8000C94D8000C94D8000C94D800D0
:100050000C94340B0C945F0B0C94D8000C94D800C7
:100060000C94D8000C94D8000C94D8000C94D800B0
:100070000C94D8000C94D8000C94D80000407A104E
:10008000F35A00A0724E18090010A5D4E80000E849
:100090007648170000E40B54020000CA9A3B0000A7
:1000A00000E1F505000080969800000040420F0036
:1000B0000000A08601000000102700000000E803F7
:1000C000000000006400000000000A0000000000C2
:1000D0000100000000002C76D888DC674F0823DF81
:1000E000C1DFAE59E1B1B796E5E3E453C63AE65154
:1000F000997696E8E6C28426EB898C9B62ED407C7B
:100100006FFCEFBC9C9F40F2BAA56FA5F490055A16
:100110002AF75C936B6CF9676DC11BFCE0E40D473B
:10012000FEF520E6B500D0ED902E0300943577055E
:100130000080841E080000204E0A000000C80C3316
:100140003333330F986E12831141EF8D2114893BA5
:10015000E65516CFFEE6DB18D1844B381BF77C1D25
:10016000901DA4BBE424203284725E228100C9F178
:1001700024ECA1E53D2711241FBECFEFD0E1DEBF67
:10018000CDBF13E0A0E0B1E0E0E8F7E202C00590E7
:100190000D92AA3EB107D9F717E0AAEEB3E001C06D
:1001A0001D92AD3CB107E1F70E9451090C94BE13BA
:1001B0000C9400000AC0EFE9FFE03197F1F700C0AE
:1001C00000006150704080409040611571058105CC
:1001D000910589F70895389A3D9A399A3A9A3B9A47
:1001E0003F9A2098289A87E880937A00089585E0BE
:1001F0008093C1078093C2078093C3078093C4078D
:100200001092C5071092C6078093C7071092C807BF
:100210008FE68093B6078093B7078093B8078093E3
:10022000B9078093BA078093BB078093BC0781E02E
:100230008093B50786E190E0A0E0B0E080932904C8
:1002400090932A04A0932B04B0932C0484EF91E0A4
:10025000A0E0B0E080932D0490932E04A0932F048F
:10026000B09330048093310490933204A09333040C
:10027000B09334048093350490933604A0933704EC
:10028000B09338048093390490933A04A0933B04CC
:10029000B0933C0480933D0490933E04A0933F04AC
:1002A000B09340048093410490934204A09343048C
:1002B000B09344048093450490934604A09347046C
:1002C000B09348041092850782E08093860780935C
:1002D0008707809388078093890780938A07809394
:1002E0008B0780938C0780E090E0A0E0BFE38093D1
:1002F0004D0490934E04A0934F04B0935004809308
:10030000550490935604A0935704B093580480E08A
:1003100090E0A0E7B1E48093510490935204A0933D
:100320005304B093540480E090E0A0EAB0E48093DA
:100330005D0490935E04A0935F04B09360040895FD
:100340006091C9077091CA078091CB079091CC0743
:1003500020E030E040EA50E40E94D60E90582DECA8
:100360003CEC4CE45DE30E943F0F08956091C907A7
:100370007091CA078091CB079091CC072AE939E99F
:1003800049E850E40E943F0F20E030E048EC52E49E
:100390000E948E10562F472F382F292F60E070E0D3
:1003A00088EC92E4DA01F9012B2F3A2F4F2F5E2FC0
:1003B0000E94D60E0E94A70F77FF03C0709561952B
:1003C0007F4F882777FD8095982F0E94DA0F089538
:1003D0005091C9074091CA073091CB072091CC07B3
:1003E000652F742F832F922F08956091C907709104
:1003F000CA078091CB079091CC072091EE023091F3
:10040000EF024091F0025091F1020E948E10089587
:1004100080937C0080917C00806480937C0080913C
:100420007A00806480937A0080917A0086FDFCCF08
:10043000809178009091790080917A008064809317
:100440007A0080917A0086FDFCCF2091780030916F
:100450007900C90108951F93182F90E00E940802A7
:10046000BC0180E090E00E94D80F6093C9077093B0
:10047000CA078093CB079093CC07E12FF0E0EF53AE
:10048000F84F2081213029F429E937E44EE75AE377
:1004900014C0253029F422E539E44DE95BE30DC0B1
:1004A0002A3129F422E430E645EE5CE306C02F361B
:1004B00071F429EB3CEF47EC5EE30E948E106093F1
:1004C000C9077093CA078093CB079093CC071F91FD
:1004D0000895E82FF0E0EA51FD4F8081833091F0DC
:1004E000843028F4813059F08230C1F405C0843062
:1004F00049F0853099F40FC00E94B60113C00E94E4
:10050000A00110C06091C9077091CA078091CB0704
:100510009091CC0707C00E94F50104C060E070E034
:1005200080E89FEB089580E090E00E946B0E0895B4
:10053000CF92DF92EF92FF921F93CF93DF93182F0A
:100540000E9469026B017C01C12FD0E0FE01EB54D7
:10055000F84F8081882321F0813009F0EEC1E0C09E
:10056000FE01EB57F84F8081813009F06FC0FE012A
:10057000EE0FFF1FEE0FFF1FE75DFB4F60817181E4
:10058000828193810E94D80FFE01EA51FD4FE081E4
:10059000F0E0EE0FFF1FEE0FFF1FE75BFB4F208128
:1005A0003181428153810E94D70E9B01AC01C7016A
:1005B000B6010E943B0F87FF1AC0319918C0419ABB
:1005C0008091E302882359F080E091E00E94D30BF0
:1005D000812F805D0E94BE0B8AE00E94BE0B80913D
:1005E000E402882321F0812F68E40E949302FE0137
:1005F000EE0FFF1FEE0FFF1FE75DFB4F6081718164
:10060000828193810E94D80F9B01AC01C701B60182
:100610000E948A101816D4F4319B18C0419880911A
:10062000E302882359F084E091E00E94D30B812FEC
:10063000805D0E94BE0B8AE00E94BE0B8091E402A6
:10064000882321F0812F6CE40E949302FE01EB5776
:10065000F84F8081882309F070C1FE01EE0FFF1F63
:10066000EE0FFF1FE75DFB4F6081718182819381F7
:100670000E94D80F9B01AC01C701B6010E948A10ED
:100680001816D4F4319918C0419A8091E302882356
:1006900059F080E091E00E94D30B812F805D0E9491
:1006A000BE0B8AE00E94BE0B8091E402882321F0F9
:1006B000812F68E40E949302FE01EE0FFF1FEE0FF0
:1006C000FF1FE75DFB4F60817181828193810E94F2
:1006D000D80FCA51DD4FE881F0E0EE0FFF1FEE0F9B
:1006E000FF1FE75BFB4F20813181428153810E94D4
:1006F000D60E9B01AC01C701B6010E943B0F87FFDC
:100700001CC1319B1AC1419884E091E00E94D30B37
:10071000812F805D0E94BE0B8AE00E94BE0B0DC13E
:10072000FE01EB57F84F8081813009F080C0FE0157
:10073000EE0FFF1FEE0FFF1FE75DFB4F6081718122
:10074000828193810E94D80FFE01EA51FD4FE08122
:10075000F0E0EE0FFF1FEE0FFF1FE75BFB4F208166
:100760003181428153810E94D60E9B01AC01C701A9
:10077000B6010E943B0F87FF1AC0329918C0429AF7
:100780008091E302882359F088E091E00E94D30B26
:10079000812F805D0E94BE0B8AE00E94BE0B80917B
:1007A000E402882321F0812F68E40E949302FE0175
:1007B000EE0FFF1FEE0FFF1FE75DFB4F60817181A2
:1007C000828193810E94D80FFE01EA51FD4FE081A2
:1007D000F0E0EE0FFF1FEE0FFF1FE75BFB4F2081E6
:1007E0003181428153810E94D70E9B01AC01C70128
:1007F000B6010E948A101816D4F4329B18C0429891
:100800008091E302882359F08CE091E00E94D30BA1
:10081000812F805D0E94BE0B8AE00E94BE0B8091FA
:10082000E402882321F0812F6CE40E949302FE01F0
:10083000EB57F84F8081882309F07FC0FE01EE0F4F
:10084000FF1FEE0FFF1FE75DFB4F6081718182810B
:1008500093810E94D80FFE01EA51FD4FE081F0E044
:10086000EE0FFF1FEE0FFF1FE75BFB4F2081318173
:10087000428153810E94D70E9B01AC01C701B60192
:100880000E948A101816D4F4329918C0429A8091A6
:10089000E302882359F088E091E00E94D30B812F76
:1008A000805D0E94BE0B8AE00E94BE0B8091E40234
:1008B000882321F0812F68E40E949302FE01EE0F4D
:1008C000FF1FEE0FFF1FE75DFB4F6081718182818B
:1008D00093810E94D80FCA51DD4FE881F0E0EE0FFE
:1008E000FF1FEE0FFF1FE75BFB4F2081318142812D
:1008F00053810E94D60E9B01AC01C701B6010E9434
:100900003B0F87FF1AC0329B18C042988091E302C8
:10091000882359F08CE091E00E94D30B812F805DF9
:100920000E94BE0B8AE00E94BE0B8091E4028823E5
:1009300021F0812F6CE40E949302DF91CF911F91EF
:10094000FF90EF90DF90CF900895FF920F931F9349
:10095000CF93DF93F82EC82FD0E0FE01EA51FD4F70
:100960008081833091F0843028F4813059F08230D6
:10097000F9F405C0843049F08530D1F411C00E94EB
:10098000B60110C00E94A0010DC06091C90770910E
:10099000CA078091CB079091CC0747E023E004C0C1
:1009A0000E94F50147E021E00EEA17E00E94F110F5
:1009B00080E191E00E94D30B8F2D805D0E94BE0BE1
:1009C0008BE30E94BE0B8FEA97E00E94D30BCA51C3
:1009D000DD4F8881833061F0843028F4813071F0FC
:1009E0008230B1F408C0843061F0853089F40CC0E5
:1009F00083E191E00BC086E191E008C089E191E0DC
:100A000005C08CE191E002C08FE191E00E94D30B20
:100A10008AE00E94BE0BDF91CF911F910F91FF9052
:100A20000895DF92EF92FF920F931F93DF93CF937E
:100A300000D000D00F92CDB7DEB77C01D62E862F26
:100A40008B508230B8F4F701108280E4818380E516
:100A5000828313828481807E8A6084838FE685838B
:100A60008BE686838AE38783862F8A50808780E29D
:100A7000818719C06D3069F48EE6F70185838FE6B2
:100A8000868392E69783808781E6818782E78287E3
:100A900031C06E3041F48CE6F701858385E68683AC
:100AA00084E6878327C0FD2DFA3021F5F7011082F7
:100AB00080E4818380E5828313828481807E8E60DE
:100AC000848381E6858383E68683319902C082E54B
:100AD00001C082E7F701878380E280878AE381870C
:100AE000329902C082E501C082E7F701828780E285
:100AF000838792C0F701108280E4818380E582833E
:100B000013828481807E80618483ED2DF0E0EA5140
:100B1000FD4F8081833079F08E010F5F1F4F84304D
:100B200028F48130A1F0823009F50EC0843091F0B4
:100B30008530E1F418C06091C9077091CA078091AF
:100B4000CB079091CC0724C00E94B6012DC00E9413
:100B5000A00137C06091C9077091CA078091CB0787
:100B60009091CC073AC00E94F50141C0833069F0F2
:100B7000843030F4813011F1823009F042C011C06C
:100B8000843041F18530E9F52FC060E070E0CB01A1
:100B900045E021E08E010F5F1F4F0E94F11086E5B6
:100BA00021C060E070E0CB0145E022E00E94F1103E
:100BB00080E2F701818782878CE422C060E070E0E8
:100BC000CB0145E022E00E94F11080E2F70182872C
:100BD00083E416C060E070E0CB0145E021E00E94B4
:100BE000F11083E5F7010CC060E070E0CB0145E057
:100BF00021E00E94F11080E2F7018187828784E47E
:100C00008387D7011596FE01319685E001900D92FC
:100C10008150E1F7F701D4860F900F900F900F905D
:100C20000F90CF91DF911F910F91FF90EF90DF9088
:100C30000895BF92CF92DF92EF92FF920F931F938E
:100C40008134B9F518E05FE6D52E45E0E42E3AE1AF
:100C5000F32E0E94A30B082F0E94A30B8A3309F0E6
:100C6000C9C00E94A30B823341F4E02FF0E0EF569D
:100C7000F84FF08283E291E013C0853341F4E02F16
:100C8000F0E0EF56F84FE0828CE291E009C0843347
:100C900049F4E02FF0E0EF56F84FD08284E391E082
:100CA0000E94D30B0E94A30B8B3309F0A3C01150F9
:100CB00081F60E94A30B853409F496C08D3409F0A7
:100CC0004FC018E025E0C22E94E0D92E83E0E82E34
:100CD00002E0F02E01E00E94A30BB82E0E94A30BAD
:100CE0008A3309F087C00E94A30B813341F4EB2DB6
:100CF000F0E0EA54FD4F00838CE591E027C0823399
:100D000041F4EB2DF0E0EA54FD4FF08287E691E0EC
:100D10001DC0833341F4EB2DF0E0EA54FD4FE08237
:100D200083E791E013C0843341F4EB2DF0E0EA5403
:100D3000FD4FD0828DE791E009C0853349F4EB2D5A
:100D4000F0E0EA54FD4FC08289E891E00E94D30BA5
:100D50000E94A30B8B3309F04DC0115009F0BBCF9B
:100D60000E94A30B853409F43FC08435C9F40E9466
:100D7000A30B64E6869FB0011124605C724180E0A1
:100D800090E00E94D80F6093F2027093F302809378
:100D9000F4029093F5020E94A30B8B33910551F559
:100DA0000E94A30B853401F18334D1F40E94A30B7C
:100DB000833521F481E08093E30204C0833711F48A
:100DC0001092E3020E94A30B833421F481E080930C
:100DD000E40204C0833611F41092E4020E94A30BD3
:100DE0000E94A30B853431F48EE391E00E94D30B73
:100DF00081E001C080E01F910F91FF90EF90DF90A4
:100E0000CF90BF900895FF920F931F93883439F5C8
:100E100018E0FF24F3940E94A30B082F0E94A30B59
:100E20008A33E1F50E94A30B813341F4E02FF0E017
:100E3000EB5AF84FF08288E991E009C0803349F419
:100E4000E02FF0E0EB5AF84F108285EA91E00E9423
:100E5000D30B0E94A30B8B3309F51150E1F60E94CE
:100E6000A30B863589F418E00E94A30B0E94A30B04
:100E70008A33A1F40E94A30B0E94A30B0E94A30B30
:100E80008B3361F4115081F70E94A30B853431F448
:100E90008EE391E00E94D30B81E001C080E01F91BE
:100EA0000F91FF9008950F931F93DF93CF93CDB7CA
:100EB000DEB7A1970FB6F894DEBF0FBECDBF182FD7
:100EC0008091F2039091F303BE016F5F7F4F4AE080
:100ED00050E00E941311E12FF0E0EA51FD4F8081B4
:100EE000833061F0843028F48130B1F0823041F5F4
:100EF00010C08430A1F0853019F51AC06091C9077F
:100F00007091CA078091CB079091CC0747E023E00E
:100F100013C00E94B6010EC00E94A0010BC06091D8
:100F2000C9077091CA078091CB079091CC0702C086
:100F30000E94F50147E021E00EEA17E00E94F1105F
:100F4000CE0101960E94D30B89E00E94BE0B8FEA6E
:100F500097E00E94D30B8AE00E94BE0B8091F203BF
:100F60009091F30301969093F3038093F203A1967B
:100F70000FB6F894DEBF0FBECDBFCF91DF911F91AA
:100F80000F910895BF92CF92DF92EF92FF920F934D
:100F90001F93DF93CF93CDB7DEB7A1970FB6F89429
:100FA000DEBF0FBECDBFB82E8091F0039091F1034C
:100FB0006E010894C11CD11CB6014AE050E00E94A9
:100FC00013116091C9077091CA078091CB07909166
:100FD000CC07EEEAEE2EE7E0FE2E47E023E08701A5
:100FE0000E94F110C6010E94D30B89E00E94BE0B43
:100FF000C70101960E94D30B89E00E94BE0B8B2D86
:10100000805D0E94BE0B8AE00E94BE0B8091F003BF
:101010009091F10301969093F1038093F003A196D0
:101020000FB6F894DEBF0FBECDBFCF91DF911F91F9
:101030000F91FF90EF90DF90CF90BF9008951F9396
:10104000182F81EB91E00E94D30B133609F43FC0B7
:10105000143620F4123509F043C00EC0103719F0D1
:101060001237F1F51CC081E08093EC030E94A30BC2
:1010700085349105A9F526C00E94A30B90E0C09786
:101080008230910541F08330910539F0813091052E
:1010900039F5419A28C0429A26C0439A24C00E943A
:1010A000A30B90E0C0978230910541F08330910509
:1010B00039F081309105A1F4419815C0429813C0D0
:1010C000439811C089EB91E00E94D30B06C00E94A7
:1010D000A30B0E941906813019F4459A81E001C0E2
:1010E00080E01F9108950E94A30B85349105A9F714
:1010F000E9CFEF92FF920F931F93DF93CF93CDB77A
:10110000DEB72D970FB6F894DEBF0FBECDBF7C01C2
:10111000FC01818190819336D9F0943620F4923588
:1011200009F09FC02CC0903721F0923709F099C088
:101130005BC081E08093ED038E010F5F1F4FC801FC
:101140006AE00E941105459AC8010E946B0E87C093
:10115000F7019281903309F077C0880F982F990F8B
:10116000990F980F892F90E0A0E0B0E08093DE0205
:101170009093DF02A093E002B093E10265C090E09B
:10118000C09782309105C1F08330910531F18130F3
:10119000910509F063C0419A8E010F5F1F4FC8018E
:1011A0006BE00E941105C8010E946B0EC7010E94EE
:1011B000D30B83EC91E044C0429A8E010F5F1F4F26
:1011C000C8016CE00E941105C8010E946B0EC701A6
:1011D0000E94D30B87ED91E033C0439A8E010F5FDD
:1011E0001F4FC8016DE035C090E0C0978230910577
:1011F000B9F08330910539F18130910579F5419845
:101200008E010F5F1F4FC8016AE00E941105C801DF
:101210000E946B0EC7010E94D30B8BEE91E010C0B1
:1012200042988E010F5F1F4FC8016AE00E941105AE
:10123000C8010E946B0EC7010E94D30B80E092E0B0
:101240000E94D30B0BC043988E010F5F1F4FC80144
:101250006AE00E941105C8010E946B0E459A81E068
:1012600001C080E02D960FB6F894DEBF0FBECDBF53
:10127000CF91DF911F910F91FF90EF9008950E9401
:101280009A0C882319F485E192E002C08EE392E083
:101290000E94D30B089585B5836085BD089580E0D5
:1012A00008952F923F924F925F926F927F928F920A
:1012B0009F92AF92BF92CF92DF92EF92FF920F93E5
:1012C0001F93DF93CF93CDB7DEB7A3970FB6F894F4
:1012D000DEBF0FBECDBF78940E94EB000E94F700E6
:1012E00087E690E00E94890B81E592E00E94D30B93
:1012F00084E792E00E94D30B0E943F09409A10922B
:101300008500109284008091810085608093810027
:10131000EE24FF24870188249924540122243324B5
:1013200021011F8E18A219A21AA21B8E1C8E1D8EBF
:101330001E8ECC24DD24189B91C160908400709097
:1013400085006091F2027091F3028091F402909115
:10135000F5020E94A70F6615770550F52B8D3C8D81
:101360004D8D5E8D2F5F3F4F4F4F5F4F2B8F3C8FCB
:101370004D8F5E8F8F8D98A1A9A1BAA10196A11D55
:10138000B11D8F8F98A3A9A3BAA30894211C311C67
:10139000411C511C0894811C911CA11CB11C089477
:1013A000E11CF11C011D111D10928500109284009A
:1013B0008091DE029091DF02A091E002B091E10203
:1013C0002B8D3C8D4D8D5E8D82179307A407B5073D
:1013D00038F41092CD021B8E1C8E1D8E1E8EA8C05E
:1013E0008091D2029091D302A091D402B091D50203
:1013F0002F8D38A149A15AA182179307A407B507D9
:1014000040F431E03093CD021F8E18A219A21AA227
:101410008FC08091D6029091D702A091D802B0914E
:10142000D90282159305A405B50538F442E040932E
:10143000CD022224332421017BC08091CE029091E1
:10144000CF02A091D002B091D10288159905AA05CA
:10145000BB0538F453E05093CD02882499245401FD
:1014600067C08D2D883009F4DD246D2C7724F301BD
:10147000EF53F84F8081882309F18D2D0E942B02B4
:10148000F301EE0FFF1FEE0FFF1FE75DFB4F8081A3
:101490009181A281B381843F21E0920720E0A207DD
:1014A00020E0B20759F0853F31E0930730E0A30711
:1014B00030E0B30719F08D2D0E9498024D2D463073
:1014C000A9F555E1E516F1040105110578F1E09063
:1014D000C907F090CA070091CB071091CC07C8014B
:1014E000B70120E030E040E85FE30E943B0F87FF58
:1014F0000AC00F2EF0E0EF2EF0E0FF2EF0E80F2FE5
:10150000FFE31F2FF02DC801B70120E030E048E4D1
:1015100052E40E948E106093F2027093F302809363
:10152000F4029093F502EE24FF248701D39405CFB3
:101530008091E3028823D9F10E94A30B282F8336E0
:1015400041F0803731F0833721F0823511F0823756
:1015500099F4822F2BA30E941F08882369F48AE93B
:1015600092E00E94D30B2BA1822F0E94BE0B89EA2E
:1015700092E00E94D30B479A8091CD02E82FF0E0D1
:10158000EF53F84F9081992391F00E942B028091A4
:10159000CD020E9498028091EC03882341F0809153
:1015A000CD020E94A50488B191E0892788B9809175
:1015B000E402882309F446C0CE010E960E94F70D7E
:1015C0008823F9F08D898233E1F48B89803741F0EB
:1015D000833631F0833721F0823511F0823789F478
:1015E000CE0143960E947908882359F48FEB92E04C
:1015F0000E94D30B8B890E94BE0B89EA92E00E9465
:10160000D30B8091CD02E82FF0E0EF53F84F90819B
:101610009923C1F00E942B028091CD020E94980272
:101620008091ED03882371F0CE0101966091CD0287
:101630000E941105CE0101960E946B0E88B1A1E0B7
:101640008A2788B9B7E3B093CD022C2D233011F44B
:101650004798CC24479B6FCEC3946DCECE010E9697
:1016600064E70E94110567CE1F920F920FB60F928A
:1016700011242F938F939F93EF93FF938091C0003A
:101680009091C600E0910604EF5FEF71209107048E
:10169000E21741F08871E0930604F0E0E85FFB4F49
:1016A000908301C082E080932804FF91EF919F9185
:1016B0008F912F910F900FBE0F901F9018951F9232
:1016C0000F920FB60F9211248F939F93EF93FF9376
:1016D0009091F4038091F503981769F0E091F50378
:1016E000EF5FEF70E093F503F0E0EA50FC4F80818C
:1016F0008093C60005C08091C1008F7D8093C1009A
:10170000FF91EF919F918F910F900FBE0F901F90BF
:1017100018951092F4031092F5031092060410929B
:10172000070497FF03C022E02093C000292F2078F0
:101730002093C5008093C40088E98093C10086E0AF
:101740008093C20008959091060480910704981731
:1017500089F0E0910704EF5FEF71E0930704F0E098
:10176000E85FFB4F808190912804392F20E0280FFB
:10177000311D02C020E031E0C90108959091F403C9
:101780009F5F9F702091F5039217E1F3E92FF0E03E
:10179000EA50FC4F80839093F4038091C1008062F3
:1017A0008093C1000895EF92FF92CF93DF93E82ECC
:1017B000E7017E01F92EE70102C00E94BE0B89916C
:1017C0008823D9F7DF91CF91FF90EF900895CF93C1
:1017D000DF93EC0102C00E94BE0BFE0121968491B2
:1017E0008823C9F7DF91CF9108958EBD0DB407FE10
:1017F000FDCF8EB5089585B18F7185B984B1806AAA
:1018000084B92698249A2C9A80E58CBD1DBC089535
:101810001F93DF93CF9300D0CDB7DEB7182F2C984E
:1018200085E04A8369830E94F50B812F0E94F50BA6
:101830006981862F0E94F50B4A81842F0E94F50B47
:101840002C9A0F900F90CF91DF911F9108950F93D5
:101850001F93CF93DF93EC010A81102F16951F7011
:10186000079500270795000F000B86EF92E00E9476
:10187000D30B8881805D0E94BE0B8AE00E94BE0B64
:101880008EEF92E00E94D30B812F805D0E94BE0BF1
:101890008AE00E94BE0B87E093E00E94D30B802F6A
:1018A000805D0E94BE0B8AE00E94BE0B0023A9F45B
:1018B00080E193E00E94D30B239609C08991805D5B
:1018C0000E94BE0B89E193E00E94D30B0F5F0117CA
:1018D000A8F38DE193E00E94D30BDF91CF911F918C
:1018E0000F9108951F93DF93CF930F92CDB7DEB77B
:1018F000182F2C9882E069830E94F50B812F0E949B
:10190000F50B6981862F0E94F50B2C9A0F90CF91D1
:10191000DF911F9108951F93182F2C9883E00E9448
:10192000F50B812F0E94F50B8FEF0E94F50B2C9A7F
:101930001F9108952C9A0E94FB0B2C9880EC0E941A
:10194000F50B8FE19EE40197F1F700C000002C9A9F
:101950008FE39CE90197F1F700C000002C9882E02A
:101960000E94F50B88E20E94F50B82E00E94F50BC5
:1019700080E90E94F50B80E00E94F50B2C9A8AE228
:101980000E948B0C8823B1F48CE061E00E94720C01
:101990008DE060E00E94720C80E660E60E94720CAE
:1019A00080E760E60E94720C8FE064E00E94720C97
:1019B00081E0089580E008951F932C9880EB0E94A9
:1019C000F50B8FEF0E94F50B182F8FEF0E94F50B90
:1019D0002C9A812F1F910895CF92DF92EF92FF9260
:1019E0000F931F93DF93CF930F92CDB7DEB78C0188
:1019F0000E94DC0C89832C9880E90E94F50B8FEF04
:101A00000E94F50BE82EFF2423E0EE0CFF1C2A9524
:101A1000E1F7F801F182E0828FEF0E94F50B8295E9
:101A20008695877090E08E299F29F80191838083A5
:101A30008FEF0E94F50B8FEF0E94F50B8FEF0E9446
:101A4000F50B9FE0C92EC8229C2D990FF8018281C9
:101A5000817E892B828383E0E82EF12CE00EF11E3B
:101A6000DD2407C08FEF0E94F50BF70181937F0102
:101A7000D394DC14B8F32C9A9981F801828193FFF6
:101A800002C0816002C08E7FF801828381E00F90E6
:101A9000CF91DF911F910F91FF90EF90DF90CF904A
:101AA00008952C980E94F50B8FEF0E94F50B2C9A4D
:101AB00008950F931F93CF93DF93EC011A8116952E
:101AC0001F702881398143E0369527954A95E1F7C3
:101AD00081E3622F0E94720C68816295660F607EBE
:101AE00082E30E94720C8A8180FF06C0612F6064CD
:101AF00085E30E94720C0FC085E3612F0E94720C77
:101B0000239600E006C06991802F8A5C0E94720CC7
:101B10000F5F0117C0F32C9881E80E94F50B2C9AF7
:101B200081E0DF91CF911F910F9108950F931F9343
:101B3000DF93CF93CDB7DEB766970FB6F894DEBFCD
:101B40000FBECDBF8FE193E00E94D30B81E090E008
:101B50009A8389838B81807E84608B8383E38C83EB
:101B600081E18D838E010F5F1F4FC8010E94270CFA
:101B700082E393E00E94D30B8FE060EE40E40E948A
:101B8000080CC8010E94590D882319F080E593E0E4
:101B900002C08BE793E00E94D30B8FEF91EEA4E09D
:101BA00081509040A040E1F700C000008E01045F2A
:101BB0001F4FC8010E94EC0C882351F086EA93E085
:101BC0000E94D30BC8010E94270C8DE193E002C054
:101BD0008CEB93E00E94D30B66960FB6F894DEBFB1
:101BE0000FBECDBFCF91DF911F910F910895CF927E
:101BF000DF92EF92FF920F931F93DF93CF930F9299
:101C0000CDB7DEB78C0180EB0E94510D89837E0138
:101C10000894E11CF11C898186FD05C0898187FF3C
:101C20004FC084E901C080E92C980E94F50B8FEF2A
:101C30000E94F50BF80180838FEF0E94F50BF801ED
:101C400081838FEF0E94F50BF80182838FEF0E9452
:101C5000F50BF80183838FEF0E94F50B5FE0C52E33
:101C6000C8229C2D990FF8018481817E892B848361
:101C7000F701808191E083FF90E0F80184818E7FFD
:101C8000892B84830B5F1F4FDD2407C08FEF0E94D9
:101C9000F50BF80181938F01D394DC14B8F32C9ADF
:101CA000F701808186FF03C08CE261E002C08CE214
:101CB00062E040E00E94080C898187708F5F01C05C
:101CC00080E00F90CF91DF911F910F91FF90EF90E7
:101CD000DF90CF900895DF92EF92FF920F931F93C2
:101CE000DF93CF930F92CDB7DEB78C0180EA0E94CD
:101CF000510D8983898182FF09C0898184FF08C0D1
:101D0000898186FD48C074E0F72E04C0FF2402C01C
:101D100062E0F62E2C988F2D80640E94F50BF8015E
:101D200080810E94F50BF80181810E94F50BF8017A
:101D300082810E94F50BF80183810E94F50BF80166
:101D40008481E82EE694FFE0EF2280FF05C08E2D0F
:101D500080640E94F50B0FC08E2D0E94F50B0B5F67
:101D60001F4FDD2406C0F80181918F010E94F50B01
:101D7000D394DE14C0F32C9AF5E0FA95F1F7000045
:101D80002C98FF2011F4FF24F3948F2D80680E947B
:101D9000F50B2C9A01C0FF248F2D0F90CF91DF916E
:101DA0001F910F91FF90EF90DF9008955058BB273F
:101DB000AA270ED075C166D130F06BD120F031F476
:101DC0009F3F11F41EF45BC10EF4E095E7FB51C197
:101DD000E92F77D180F3BA17620773078407950755
:101DE00018F071F49EF58FC10EF4E0950B2EBA2F0A
:101DF000A02D0B01B90190010C01CA01A001112411
:101E0000FF27591B99F0593F50F4503E68F11A16BC
:101E1000F040A22F232F342F4427585FF3CF46954D
:101E200037952795A795F0405395C9F77EF41F166F
:101E3000BA0B620B730B840BBAF09150A1F0FF0F39
:101E4000BB1F661F771F881FC2F70EC0BA0F621F25
:101E5000731F841F48F4879577956795B795F79515
:101E60009E3F08F0B3CF9395880F08F09927EE0FA7
:101E7000979587950895D9D008F481E008950CD0FE
:101E80000FC107D140F0FED030F021F45F3F19F0D0
:101E9000F0C0511139C1F3C014D198F39923C9F39B
:101EA0005523B1F3951B550BBB27AA276217730760
:101EB000840738F09F5F5F4F220F331F441FAA1F14
:101EC000A9F333D00E2E3AF0E0E830D091505040D4
:101ED000E695001CCAF729D0FE2F27D0660F771F82
:101EE000881FBB1F261737074807AB07B0E809F064
:101EF000BB0B802DBF01FF2793585F4F2AF09E3FF9
:101F0000510568F0B6C000C15F3FECF3983EDCF3CA
:101F1000869577956795B795F7959F5FC9F7880F71
:101F2000911D9695879597F90895E1E0660F771FC3
:101F3000881FBB1F621773078407BA0720F0621B54
:101F4000730B840BBA0BEE1F88F7E095089504D04D
:101F50006894B111D9C00895BCD088F09F5790F013
:101F6000B92F9927B751A0F0D1F0660F771F881FBE
:101F7000991F1AF0BA95C9F712C0B13081F0C3D0D9
:101F8000B1E00895C0C0672F782F8827B85F39F077
:101F9000B93FCCF3869577956795B395D9F73EF41D
:101FA00090958095709561957F4F8F4F9F4F0895C5
:101FB000E89409C097FB3EF49095809570956195E3
:101FC0007F4F8F4F9F4F9923A9F0F92F96E9BB2799
:101FD0009395F695879577956795B795F111F8CF15
:101FE000FAF4BB0F11F460FF1BC06F5F7F4F8F4F80
:101FF0009F4F16C0882311F096E911C0772321F076
:102000009EE8872F762F05C0662371F096E8862F0D
:1020100070E060E02AF09A95660F771F881FDAF764
:10202000880F9695879597F90895990F0008550F91
:10203000AA0BE0E8FEEF16161706E807F907C0F04E
:1020400012161306E407F50798F0621B730B840B56
:10205000950B39F40A2661F0232B242B252B21F430
:1020600008950A2609F4A140A6958FEF811D811DD0
:10207000089597F99F6780E870E060E008959FEF0A
:1020800080EC089500240A9416161706180609060F
:10209000089500240A9412161306140605060895DE
:1020A000092E0394000C11F4882352F0BB0F40F466
:1020B000BF2B11F460FF04C06F5F7F4F8F4F9F4FA6
:1020C000089557FD9058440F551F59F05F3F71F028
:1020D0004795880F97FB991F61F09F3F79F087958F
:1020E0000895121613061406551FF2CF4695F1DF18
:1020F00008C0161617061806991FF1CF86957105A8
:10210000610508940895E894BB2766277727CB01DB
:1021100097F908958ADF08F48FEF08950BD0C0CFA8
:10212000B1DF28F0B6DF18F0952309F0A2CFA7CFD2
:102130001124EACFC6DFA0F3959FD1F3950F50E0AD
:10214000551F629FF001729FBB27F00DB11D639F69
:10215000AA27F00DB11DAA1F649F6627B00DA11D0F
:10216000661F829F2227B00DA11D621F739FB00DB5
:10217000A11D621F839FA00D611D221F749F332725
:10218000A00D611D231F849F600D211D822F762FBE
:102190006A2F11249F5750408AF0E1F088234AF0BB
:1021A000EE0FFF1FBB1F661F771F881F9150504007
:1021B000A9F79E3F510570F05CCFA6CF5F3FECF3CF
:1021C000983EDCF3869577956795B795F795E795F3
:1021D0009F5FC1F7FE2B880F911D9695879597F904
:1021E0000895EF92FF920F931F93322FF02E47FF27
:1021F00002C0A4E101C0A4E0E42FFF27E7FDF095B1
:10220000F7FF03C0F095E195FF4F4F2D512F2E2F73
:10221000032FEA2E0E9434118F2D912F1F910F91C1
:10222000FF90EF900895FB019F01E8944230C4F0C5
:102230004532B4F44A3029F497FB1EF49095819509
:102240009F4F642F77270E947313805D8A330CF0B1
:10225000895D8193CB010097A1F716F45DE251935C
:102260001082C9010C946313A9E0B0E0EAE3F1E144
:102270000C948F136A01F22E102F0C3318F4B02E29
:10228000B39402C0ECE3BE2EAE014F5F5F4F27E078
:102290000B2D0E948B12298130E0A90149705070EA
:1022A0004130510531F0E1FC06C0E0FE06C0E0E23D
:1022B00005C0EDE203C0EBE201C0E0E023FF37C060
:1022C000EE2311F084E001C083E08F1518F4F81AB2
:1022D0008F2D01C080E0E4FC0BC0982FD60120E2D6
:1022E00002C02D9391509923E1F7C80ED11C80E0D4
:1022F000EE2319F0D601ED936D01F6013196E2FE61
:1023000005C09EE4D6019C9321E404C09EE6D6015C
:102310009C9321E611962C9391833296982FDF019E
:1023200020E202C02D9391509923E1F73DC022FF96
:1023300041C0EE2311F084E001C083E08F1518F452
:10234000F81A8F2D01C080E0E4FC0BC0982FD60155
:1023500020E202C02D9391509923E1F7C80ED11CC1
:1023600080E0EE2319F0D601ED936D01F601319670
:10237000E2FE09C099E4D6019C939EE411969C93D9
:10238000119796E407C099E6D6019C939EE61196B4
:102390009C9396E691833296982FDF0120E202C04B
:1023A0002D9391509923E1F7E80FF11D10822EEF44
:1023B0003FEFACC041E050E0EE2311F440E050E0CC
:1023C0001816190624F4BC016F5F7F4F02C061E04C
:1023D00070E0640F751F112329F0412F50E04F5F0B
:1023E0005F4F02C040E050E0460F571F6F2D70E076
:1023F000461757071CF40F2D041B01C000E0FF24F3
:10240000A70140715070E4FC0DC0E3FC0BC0602FCD
:10241000D60170E202C07D9361506623E1F7C00EE1
:10242000D11C00E0EE2319F0D601ED936D014115AA
:10243000510559F4402FF60150E302C05193415029
:102440004423E1F7C00ED11C00E0B80EFA80A901C8
:102450004071507024FF04C0BF2DB13309F4BA9409
:102460001B142CF4AB2DA93018F0A8E001C0A1E09A
:102470009C0197FF02C020E030E0BC016F5F7F4FFE
:10248000621B730BFE013196E60FF71F6EE2E62E1C
:10249000BC016A1B7109A12FB0E0AA24BB24AA1AAF
:1024A000BB0A1FEF2F3F310719F4D601ED926D01E2
:1024B000821793072CF06217730714F4108101C080
:1024C00010E32150304031962A153B0524F0D60107
:1024D0001D936D01E6CF2817390749F4BF2DB63398
:1024E00028F4B53321F44115510509F411E3F6013F
:1024F0001193802FDF0190E202C09D9381508823C9
:10250000E1F7E00FF11D108220E030E0C9012996CB
:10251000EAE00C94AB13283008F027E03327DA0107
:10252000990F311D87FD916000966105710539F4A1
:1025300032602E5F3D9330E32A95E1F708959F3F87
:1025400030F080387105610509F03C5F3C5F3D93D8
:10255000913008F08068911DDF93CF931F930F9304
:10256000FF92EF92192F987F9695E92F9695969561
:10257000E90FFF27EA52FF4F99273327EE24FF2464
:10258000A701E70105900894079428F4360FE71E89
:10259000F81E491F511D660F771F881F991F06944B
:1025A000A1F70590079428F4E70EF81E491F561F5F
:1025B000C11D770F881F991F661F0694A1F705900C
:1025C000079428F4F80E491F561FC71FD11D880F06
:1025D000991F661F771F0694A1F70590079420F4B2
:1025E000490F561FC71FD81F990F661F771F881FD7
:1025F0000694A9F784911095177041F0D695C79568
:1026000057954795F794E7941A95C1F7ECE7F0E0F2
:1026100068941590159135916591959105907FE29B
:102620007395E118F10A430B560BC90BD009C0F79B
:10263000E10CF11E431F561FC91FD01D7EF47033DD
:1026400011F48A95E6CFE894015030F0080F0AF4AF
:102650000027021708F4202F2395022F7A3328F041
:1026600079E37D932A95E9F710C07D932A9589F641
:10267000069497956795379517951794E118F10A81
:10268000430B560BC90BD00998F023957E91739597
:102690007A3308F070E37C932013B8F77E91706171
:1026A0007D9330F0839571E37D9370E32A95E1F794
:1026B0001124EF90FF900F911F91CF91DF919927F7
:1026C00087FD90950895DC01FC01672F71917723B8
:1026D000E1F7329704C07C916D9370836291AE17DD
:1026E000BF07C8F30895AA1BBB1B51E107C0AA1F6F
:1026F000BB1FA617B70710F0A61BB70B881F991FA3
:102700005A95A9F780959095BC01CD0108952F9217
:102710003F924F925F926F927F928F929F92AF9271
:10272000BF92CF92DF92EF92FF920F931F93CF93BE
:10273000DF93CDB7DEB7CA1BDB0B0FB6F894DEBF55
:102740000FBECDBF09942A88398848885F846E847B
:102750007D848C849B84AA84B984C884DF80EE80C5
:10276000FD800C811B81AA81B981CE0FD11D0FB6CE
:10277000F894DEBF0FBECDBFED010895F894FFCFF2
:1027800048303A004C303A0048313A004C313A0077
:10279000503A00205600204C0020430020530020D7
:1027A000636D00323620736574200A00352073652E
:1027B00074200A0034303020736574200A000A0A3D
:1027C000202D2D2D20206E657720636F6E66696742
:1027D0002073657420212121200A0A0074656D7020
:1027E00020736574200A006C6967687420736574CF
:1027F000200A00766F6C20736574200A006E6F6982
:10280000736520736574200A0064697374616E6374
:102810006520736574200A006869676865722073B3
:102820006574200A006C6F77657220736574200AE6
:10283000007265616374200A006F6B2020202020E5
:10284000200A0072656C61697331206F6E206279B5
:102850002063616E200A0072656C61697332206FBB
:102860006E2062792063616E200A0072656C616976
:102870007331206F66662062792063616E200A00E2
:1028800072656C61697332206F66662062792063BD
:10289000616E200A004665686C65723A206B616E55
:1028A0006E204D435032353135206E696368742097
:1028B000616E737072656368656E210A0A004D432C
:1028C000503235313520697320616B7469760A0A9C
:1028D00000486920686176652066756E20757369A9
:1028E0006E67207468652053797374656D202021AC
:1028F00021200A0053797374656D732072756E6EB2
:10290000696E6720696E2067656E6572616C206D07
:102910006F646520202121200A0020636F6D6D61A6
:102920006E64205541525420002072656164206914
:102930006E636F6D706C657465202121210A002023
:10294000636F6D6D616E642043414E2000373C0023
:1029500000006400000096000000AA000000C8000B
:1029600000009601010101030504000003000000BE
:102970007A430000484269643A20202020006C61BC
:10298000656E67653A20007274723A20202020003C
:10299000646174656E3A202000203B20000A0045E7
:1029A000727A65756765204E6163687269636874E1
:1029B0000A000A77656368736C65207A756D204C30
:1029C0006F6F706261636B2D4D6F6475730A0A00DF
:1029D0004E616368726963687420777572646520FC
:1029E000696E20646965205075666665722067654A
:1029F00073636872696562656E0A004665686C6536
:102A0000723A206B6F6E6E746520646965204E614A
:102A100063687269636874206E69636874207365A3
:102A20006E64656E0A004E61636872696368742043
:102A3000656D7066616E67656E210A004665686C3B
:102A400065723A206B6F6E6E746520646965204E06
:102A50006163687269636874206E69636874206179
:0A2A600075736C6573656E0A0A0059
:00000001FF
