:200000005CC075C074C073C072C071C070C06FC06EC06DC06CC06BC06AC069C068C067C012
:2000200066C065C064C063C062C061C060C05FC05EC05DC049324320535441525420434F53
:200040004E444954494F4E204552524F520049324320534C41564520414444524553532042
:200060004552524F52004932432044415441205458204552524F5200493243204441544190
:20008000205258204552524F52004932432054494D454F555400493243204552524F520A75
:2000A0000020545743523D25303278205354415455533D253032780A000011241FBECFEF8A
:2000C000D2E0DEBFCDBF11E0A0E0B1E0ECE2FFE002C005900D92A030B107D9F711E0A0E0D7
:2000E000B1E001C01D92A830B107E1F701C088CFC2EFD2E0DEBFCDBF1092B9008CE1809318
:20010000B8006DD340E060EE8FE023D282E089838CE08A8380E48B831C828D818E7F8D83F3
:200120008E010F5F1F4FC4D12D81217E24602D83292F332727FD3A952E838F83C80148D2F3
:2001400080E090E00197F1F7EECF84E98093BC008091BC0084FDFCCF80E090E008950F932E
:200160001F939C01062F142F84E98093BC008091BC0084FDFCCFC9019AD3412F5527602FB1
:20018000772781EA90E093D31F910F910895FC01342F522F1092010110920001662311F0E1
:2001A00084EC01C084E88093BC008091BC0087FD07C08091000190910101885E9340A8F332
:2001C0008091000190910101885E934080F0552349F14091B9006091BC0088E790E0BFDF5B
:2001E0004091B9006091BC008AE890E011C04091B900842F9927887F9070232F33278217CC
:20020000930751F0552371F06091BC0088E790E0A6DF8FEF9FEF08958091BB00808380E041
:2002200090E008958FEF9FEF0895542F10920101109200018093BB0084E88093BC00809124
:20024000BC0087FD07C08091000190910101885E9340A8F38091000190910101885E934020
:2002600080F0552331F14091B9006091BC0086E690E075DF4091B9006091BC008AE890E0F4
:2002800014C04091B900842F9927887F9070262F33278217930719F480E090E008955523B2
:2002A00041F06091BC0086E690E059DF8FEF9FEF08958FEF9FEF0895342F522F1092010172
:2002C00010920001880F862B8093BB0084E88093BC008091BC0087FD07C0809100019091DF
:2002E0000101885E9340A8F38091000190910101885E934080F0552331F14091B900609135
:20030000BC008EE490E02BDF4091B9006091BC008AE890E014C04091B900842F9927887F44
:200320009070232F33278217930719F480E090E00895552341F06091BC008EE490E00FDF3E
:200340008FEF9FEF08958FEF9FEF0895282F109201011092000184EA8093BC008091BC00A3
:2003600087FD07C08091000190910101885E9340A8F38091000190910101885E934080F04B
:200380006623F9F04091B9006091BC0084E390E0E6DE4091B9006091BC008AE890E00DC033
:2003A0004091B900421719F480E090E00895662341F06091BC0084E390E0D1DE8FEF9FEFE7
:2003C00008958FEF9FEF0895EF92FF920F931F93CF93DF93CDB7DEB722970FB6F894DEBFDD
:2003E0000FBECDBF082F162F7A0161E088E0AEDF882319F08FEF9FEF4EC021E048E160E03F
:20040000802F5ADF882319F08EEF9FEF44C041E068E2812F0ADF882319F08DEF9FEF3BC074
:2004200061E080E193DF882319F08CEF9FEF33C021E040E461E0802F3FDF882319F08BEF97
:200440009FEF29C021E040E561E0CE0101969FDE882319F08AEF9FEF1EC021E048E560E0D4
:20046000CE01029694DE882319F089EF9FEF13C06CDE882319F088EF9FEF0DC0898199277C
:20048000982F88272A813327822B932BF7019183808380E090E022960FB6F894DEBF0FBE24
:2004A000CDBFDF91CF911F910F91FF90EF900895CF93DF93CDB7DEB722970FB6F894DEBF51
:2004C0000FBECDBFAE014F5F5F4F62E080E67CDF87FF03C08FEF9FEF02C089819A812296C1
:2004E0000FB6F894DEBF0FBECDBFDF91CF9108958EBD0DB407FEFDCF8EB599270895982F04
:200500002A9882E08EBD0DB407FEFDCF8EB59EBD0DB407FEFDCF8EB56EBD0DB407FEFDCFAA
:200520008EB52A9A0895982F2A9883E08EBD0DB407FEFDCF8EB59EBD0DB407FEFDCF8EB5DB
:200540008FEF8EBD0DB407FEFDCF8EB52A9A99270895982F2A9885E08EBD0DB407FEFDCF11
:200560008EB59EBD0DB407FEFDCF8EB56EBD0DB407FEFDCF8EB54EBD0DB407FEFDCF8EB528
:200580002A9A08952A988EBD0DB407FEFDCF8EB58FEF8EBD0DB407FEFDCF8EB52A9A9927F6
:2005A000089589B1992796958795969587958095909581709070089580EAE4DF90E08475B8
:2005C000843509F491E081E09827892F992708950F931F93CF93DF93CDB7DEB721970FB601
:2005E000F894DEBF0FBECDBF8C0180EACBDF8983898182FD02C090E00CC0898184FD02C0F8
:2006000092E007C0898186FF03C080E090E058C094E02A98892F80648EBD0DB407FEFDCFB8
:200620008EB5F80180818EBD0DB407FEFDCF8EB5F80181818EBD0DB407FEFDCF8EB5F80149
:2006400082818EBD0DB407FEFDCF8EB5F80183818EBD0DB407FEFDCF8EB5F8018481282F05
:2006600026952F7080FF07C020642EBD0DB407FEFDCF8EB513C02EBD0DB407FEFDCF8EB503
:2006800030E00AC0F801E30FF11D85818EBD0DB407FEFDCF8EB53F5F3217A1F72A9A85E0B9
:2006A0008A95F1F72A98992309F491E0892F80688EBD0DB407FEFDCF8EB52A9A892F99274B
:2006C00021960FB6F894DEBF0FBECDBFDF91CF911F910F9108950F931F93CF93DF93CDB7B3
:2006E000DEB721970FB6F894DEBF0FBECDBF8C0180EB48DF8983DE011196898186FF02C064
:2007000080E907C0898187FD03C080E090E05CC084E92A988EBD0DB407FEFDCF8EB58FEF9F
:200720008EBD0DB407FEFDCF8EB5F80180838FEF8EBD0DB407FEFDCF8EB5F80181838FEF84
:200740008EBD0DB407FEFDCF8EB5F80182838FEF8EBD0DB407FEFDCF8EB5F80183838FEF60
:200760008EBD0DB407FEFDCF4EB54F70342F330FF8012481207E8C91992753E096958795A2
:200780005A95E1F78170232B282B248390E00BC08FEF8EBD0DB407FEFDCF8EB5F801E90F8F
:2007A000F11D85839F5F941799F72A9A8C9186FF03C040E061E002C040E062E08CE2C9DE27
:2007C000898187708F5F992721960FB6F894DEBF0FBECDBFDF91CF911F910F9108952A9AEB
:2007E000229A2D982B982C98259A239A249852985A9A81E58CBD1DBC2A9880EC8EBD0DB419
:2008000007FEFDCF8EB52A9A85E38A95F1F72A9882E08EBD0DB407FEFDCF8EB588E28EBD98
:200820000DB407FEFDCF8EB582E08EBD0DB407FEFDCF8EB580E98EBD0DB407FEFDCF8EB5D8
:200840001EBC0DB407FEFDCF8EB583E08EBD0DB407FEFDCF8EB52A9A8AE265DE882319F03F
:2008600080E090E0089560E08CE049DE60E08DE046DE60E680E643DE60E680E740DE64E08B
:200880008FE03DDE81E090E0089540E050E00BC020E030E000002F5F3F4F6EE32038360733
:2008A000C9F74F5F5F4F4817590791F70895A2E0B0E0ECE5F4E013C3FE01379661917191EB
:2008C000FA83E983E0910401F091050183818860838349815A8180910401909105010AD084
:2008E000E0910401F09105012381277F2383E2E0229611C3A2E1B0E0EFE7F4E0E0C28824B2
:20090000992454012C017A8B698B3A01FC0117821682838181FD03C08FEF9FEF5FC2CC24D4
:20092000DD244BC2C0FE33C2832D80538A30E0F4F0E33F1641F42D85222329F4C3FC03C0F2
:2009400080E091E078C08AE0ED85E802C0011124380EF32DF053FD87F7FF02C02FE72D8723
:20096000C3FC26C22D8424C2C60188709070C3FE05C03D85332311F4E1E0ED87F7E6F315BD
:200980006CF125E632160CF067C033E5331609F486C03315BCF08BE2381609F441C083159B
:2009A0004CF090E2391609F43FC0E3E23E1609F0E5C144C0FDE23F16E1F12EE2321609F02B
:2009C000DDC141C033E6331609F44CC033150CF47DC088E5381609F0D1C11FC0E0E73E1648
:2009E00009F49EC0E3155CF0FCE63F1691F12FE6321689F039E6331609F0C0C167C0E5E7F4
:200A00003E1609F495C0F8E73F1639F023E7321609F0B4C12FC038E08AC080E1888B88C006
:200A2000E0E1F0E0CE2ADF2A20E230E0C22AD32ABFC180E890E0C82AD92ABAC1E0E4F0E0CD
:200A4000CE2ADF2AB5C128E030E0C22AD32A1D86AFC184E090E0EFCF5FE3852E2A9443E69D
:200A6000342E28C1F30180802A9422E030E0620E731E20C1F30180809180892B41F0FD8519
:200A80006F2F772767FD7095C401BFD117C0F40101900020E9F73197E819E88B10C0F301FF
:200AA00080809180892B41F0FD856F2F772767FD7095C4019FD102C0C40193D1888B22E0E4
:200AC00030E0620E731E3889231AF4C0C2FE08C0F30180819181A281B38124E030E009C090
:200AE000F30180819181AA2797FDA095BA2F22E030E0620E731E4C015D01B7FF0CC082E0CA
:200B000090E0C82AD92AB094A09490948094811C911CA11CB11CEFEBFFEFCE22DF2221C052
:200B200020E430E0C22AD32A38E7332E30E1388BC2FE08C0F30180819181A281B38124E07A
:200B400030E007C0F30180819181AA27BB2722E030E0620E731E4C015D018FEC9FEFC82253
:200B6000D92285017401FE013196FF87EE87F8898F2E9924AA24BB24C801B701A50194015A
:200B80007CD16A301CF0630D615201C0605DEE85FF856193FF87EE87C801B701A50194011F
:200BA0006CD179018A01211531054105510521F7882499245401CE0101968E84881AC60134
:200BC00082739070892B09F02A94C6FE07C0F889F03111F482E001C081E0281A28E0E22EA5
:200BE000F12CEC20FD20C3FE16C08D85282F332727FD3095882D9927821793073CF0E7EFC2
:200C0000FFEFCE22DF22EE24FF2405C0FD85F819FD872F1A01C02818C60180789170892B26
:200C200061F4822D05C0B20180E290E0F9D0812F182F11501816BCF3212EC1FE04C0B201E3
:200C40008DE290E00BC0C4FE04C0B2018BE290E005C0C5FE04C0B20180E290E0E1D0C6FE8E
:200C60000DC0B20180E390E0DBD02889203131F4B201832D992787FD9095D2D0D0FE0CC047
:200C8000822D05C0B20180E390E0CAD0812F182F11501816BCF3212EEF2861F02D8505C05D
:200CA000B20180E390E0BCD0212F122F11501216BCF31D8790E8E92EF12CEC20FD20C7FC1D
:200CC0000CC0822D05C0B20180E290E0A9D0812F182F11501816BCF3212E33E6331639F4C3
:200CE000B201882D992787FD90959AD038C083E7381681F4840108C0F80181918F01B201F9
:200D0000992787FD90958CD0F889F150F88BFF3F99F714C023E5321619F00E851F8518C0BF
:200D2000840107C0F8018491B201992779D00F5F1F4FF889F150F88BFF3FA1F748010FC08E
:200D4000F80182918F01B201992787FD909568D0CE0101960817190799F71F870E87EF281C
:200D600099F0822D05C0B20180E290E059D0812F182F11501816BCF3212E06C0B201832D1B
:200D8000992787FD90954CD0CC24DD2411C0F5E23F1641F42AE0288B22241D8681E0C82EAE
:200DA000D12C06C0B201832D992787FD909538D089899A8901969A8B898BF201838183FF1E
:200DC00004C0E989FA89349003C0E989FA893080332009F0A7CDF20186819781E2E16296A1
:200DE0008AC0FC0105900020E9F7809590958E0F9F1F0895FC010590615070400110D8F712
:200E0000809590958E0F9F1F0895FC016150704001900110D8F7809590958E0F9F1F08959F
:200E20000F931F93CF93DF938C01EB018B81992781FF1BC082FF0DC02E813F818C819D8102
:200E40002817390764F4E881F9810193F983E88306C0E885F985802F0995892B31F48E8177
:200E60009F8101969F838E8302C00FEF1FEFC801DF91CF911F910F910895A1E21A2EAA1BA4
:200E8000BB1BFD010DC0AA1FBB1FEE1FFF1FA217B307E407F50720F0A21BB30BE40BF50B0F
:200EA000661F771F881F991F1A9469F760957095809590959B01AC01BD01CF0108952F9241
:200EC0003F924F925F926F927F928F929F92AF92BF92CF92DF92EF92FF920F931F93CF93DF
:200EE000DF93CDB7DEB7CA1BDB0B0FB6F894DEBF0FBECDBF09942A88398848885F846E84A0
:200F00007D848C849B84AA84B984C884DF80EE80FD800C811B81AA81B981CE0FD11D0FB682
:0C0F2000F894DEBF0FBECDBFED010895B8
:00000001FF
