:100000000C94BB000C94D8000C94D8000C94D8002D
:100010000C94D8000C94D8000C94D8000C94D80000
:100020000C94D8000C94D8000C94D8000C94D800F0
:100030000C94D8000C94D8000C94D8000C94D800E0
:100040000C94D8000C94D8000C94D8000C94D800D0
:100050000C94060A0C94310A0C94D8000C94D80025
:100060000C94D8000C94D8000C94D8000C94D800B0
:100070000C94D8000C94D8000C94D80000407A104E
:10008000F35A00A0724E18090010A5D4E80000E849
:100090007648170000E40B54020000CA9A3B0000A7
:1000A00000E1F505000080969800000040420F0036
:1000B0000000A08601000000102700000000E803F7
:1000C000000000006400000000000A0000000000C2
:1000D0000100000000002C76D888DC674F0823DF81
:1000E000C1DFAE59E1B1B796E5E3E453C63AE65154
:1000F000997696E8E6C28426EB898C9B62ED407C7B
:100100006FFCEFBC9C9F40F2BAA56FA5F490055A16
:100110002AF75C936B6CF9676DC11BFCE0E40D473B
:10012000FEF520E6B500D0ED902E0300943577055E
:100130000080841E080000204E0A000000C80C3316
:100140003333330F986E12831141EF8D2114893BA5
:10015000E65516CFFEE6DB18D1844B381BF77C1D25
:10016000901DA4BBE424203284725E228100C9F178
:1001700024ECA1E53D2711241FBECFEFD0E1DEBF67
:10018000CDBF13E0A0E0B1E0E4E2F5E202C00590EB
:100190000D92A03DB107D9F717E0A0EDB3E001C083
:1001A0001D92A23BB107E1F70E9475080C949012D2
:1001B0000C9400000AC0EFE9FFE03197F1F700C0AE
:1001C00000006150704080409040611571058105CC
:1001D000910589F70895389A399A3A9A3B9A3F9A45
:1001E0002098289A87E880937A0008951092A607AD
:1001F00085E08093A7071092A8071092A907109294
:10020000AA071092AB071092AC071092AD078FE6C9
:1002100080939A0780939B0780939C0780939D0708
:1002200080939E0780939F078093A0078093A107E8
:1002300084EF91E0A0E0B0E080930E0490930F046F
:10024000A0931004B09311048093120490931304AC
:10025000A0931404B093150480931604909317048C
:10026000A0931804B093190480931A0490931B046C
:10027000A0931C04B0931D0480931E0490931F044C
:10028000A0932004B093210480932204909323042C
:10029000A0932404B093250480932604909327040C
:1002A000A0932804B093290480932A0490932B04EC
:1002B000A0932C04B0932D0482E080936A0780936E
:1002C0006B0780936C0780936D0780936E07809314
:1002D0006F07809370078093710780E090E0A0E83B
:1002E000BFE38093320490933304A0933404B0931B
:1002F000350480E090E0A0E0BFE380933A0490935F
:100300003B04A0933C04B0933D0480E090E0A0EE59
:10031000B0E48093360490933704A0933804B093EC
:10032000390480E090E0A0EAB0E480934204909326
:100330004304A0934404B093450408956091AE072C
:100340007091AF078091B0079091B10720E030E045
:1003500040EA50E40E94A80D90582DEC3CEC4CE48F
:100360005DE30E94110E08956091AE077091AF0792
:100370008091B0079091B1072AE939E949E850E442
:100380000E94110E20E030E048EC52E40E94600F21
:10039000562F472F382F292F60E070E088EC92E429
:1003A000DA01F9012B2F3A2F4F2F5E2F0E94A80D53
:1003B0000E94790E77FF03C0709561957F4F882763
:1003C00077FD8095982F0E94AC0E08956091AE073E
:1003D0007091AF078091B0079091B10720E030E0B5
:1003E00040EA50E40E94110E20E030E048EC52E474
:1003F0000E94600F08956091AE077091AF078091E1
:10040000B0079091B1072091D3023091D40240916E
:10041000D5025091D6020E94600F089580937C000F
:1004200080917C00806480937C0080917A0080645D
:1004300080937A0080917A0086FDFCCF80917800CD
:100440009091790080917A00806480937A00809105
:100450007A0086FDFCCF2091780030917900C901A7
:1004600008951F93182F90E00E940E02BC0180E0B7
:1004700090E00E94AA0E6093AE077093AF0780933E
:10048000B0079093B107E12FF0E0EA55F84F2081D3
:10049000213029F429E937E44EE75AE314C0253026
:1004A00029F422E539E44DE95BE30DC02A3129F452
:1004B00022E430E645EE5CE306C02F3671F429EB0A
:1004C0003CEF47EC5EE30E94600F6093AE077093D1
:1004D000AF078093B0079093B1071F910895E82F5D
:1004E000F0E0E553FD4F8081833061F0843028F4E3
:1004F0008130A1F08230D9F40EC0843091F0853083
:10050000B1F412C06091AE077091AF078091B0074F
:100510009091B10710C00E94B4010DC00E949E01CD
:100520000AC00E94E60107C00E94FB0104C060E00F
:1005300070E080E89FEB08950895CF92DF92EF92EC
:10054000FF921F93CF93DF93182F0E946F026B01CE
:100550007C01C12FD0E0FE01E656F84F8081882350
:1005600021F0813009F08FC1BFC0FE01E659F84F7C
:100570008081813009F05FC0FE01EE0FFF1FEE0F9A
:10058000FF1FE25FFB4F60817181828193810E9436
:10059000AA0EFE01E553FD4FE081F0E0EE0FFF1FD4
:1005A000EE0FFF1FE25DFB4F2081318142815381BD
:1005B0000E94A90D9B01AC01C701B6010E940D0E5E
:1005C00087FF12C0319910C0419A8091C9028823D7
:1005D00059F080E091E00E94A50A812F805D0E9481
:1005E000900A8AE00E94900AFE01EE0FFF1FEE0FB4
:1005F000FF1FE25FFB4F60817181828193810E94C6
:10060000AA0E9B01AC01C701B6010E945C0F18162F
:1006100094F4319B10C041988091C902882359F00D
:1006200084E091E00E94A50A812F805D0E94900ADB
:100630008AE00E94900AFE01E659F84F80818823E3
:1006400009F021C1FE01EE0FFF1FEE0FFF1FE25F59
:10065000FB4F60817181828193810E94AA0E9B0170
:10066000AC01C701B6010E945C0F181694F43199D1
:1006700010C0419A8091C902882359F080E091E02E
:100680000E94A50A812F805D0E94900A8AE00E9444
:10069000900AFE01EE0FFF1FEE0FFF1FE25FFB4F00
:1006A00060817181828193810E94AA0EC553DD4FC2
:1006B000E881F0E0EE0FFF1FEE0FFF1FE25DFB4F42
:1006C00020813181428153810E94A80D9B01AC01A0
:1006D000C701B6010E940D0E87FFD5C0319BD3C064
:1006E000419884E091E0C6C0FE01E659F84F808150
:1006F000813009F05FC0FE01EE0FFF1FEE0FFF1FFC
:10070000E25FFB4F60817181828193810E94AA0E1A
:10071000FE01E553FD4FE081F0E0EE0FFF1FEE0F0D
:10072000FF1FE25DFB4F20813181428153810E9496
:10073000A90D9B01AC01C701B6010E940D0E87FFF8
:1007400012C0329910C0429A8091C902882359F090
:1007500088E091E00E94A50A812F805D0E94900AA6
:100760008AE00E94900AFE01EE0FFF1FEE0FFF1FAE
:10077000E25FFB4F60817181828193810E94AA0EAA
:100780009B01AC01C701B6010E945C0F181694F4DE
:10079000329B10C042988091C902882359F08CE0A6
:1007A00091E00E94A50A812F805D0E94900A8AE054
:1007B0000E94900AFE01E659F84F8081882309F0D3
:1007C00062C0FE01EE0FFF1FEE0FFF1FE25FFB4F47
:1007D00060817181828193810E94AA0EFE01E5539E
:1007E000FD4FE081F0E0EE0FFF1FEE0FFF1FE25D17
:1007F000FB4F20813181428153810E94A80D9B01D2
:10080000AC01C701B6010E945C0F181694F432992E
:1008100010C0429A8091C902882359F088E091E083
:100820000E94A50A812F805D0E94900A8AE00E94A2
:10083000900ACC0FDD1FCC0FDD1FC25FDB4F68813C
:1008400079818A819B8165507040804090400E94F0
:10085000AA0E9B01AC01C701B6010E940D0E87FFD5
:1008600012C0329B10C042988091C902882359F06F
:100870008CE091E00E94A50A812F805D0E94900A81
:100880008AE00E94900ADF91CF911F91FF90EF9034
:10089000DF90CF900895FF920F931F93CF93DF9334
:1008A000F82EC82FD0E0FE01E553FD4F8081833044
:1008B00071F0843028F48130C1F0823069F512C0C3
:1008C0008530C9F08530A0F0863031F517C06091D1
:1008D000AE077091AF078091B0079091B10747E0E4
:1008E00023E016C00E94B40111C00E949E010EC0F8
:1008F0000E94E6010BC00E94FB0108C06091AE0798
:100900007091AF078091B0079091B10747E021E067
:1009100003E917E00E94C30F80E191E00E94A50A5D
:100920008F2D805D0E94900A8BE30E94900A84E9DB
:1009300097E00E94A50AC553DD4F8881833071F08E
:10094000843028F4813081F08230D9F40AC08530B7
:1009500089F0853060F08630A1F40FC083E191E02A
:100960000EC086E191E00BC089E191E008C08CE106
:1009700091E005C08FE191E002C083E291E00E9426
:10098000A50A8AE00E94900ADF91CF911F910F91F2
:10099000FF900895FF920F931F93CF93DF93EC0185
:1009A000F62E6B3040F08FE68D838BE68E838F2D95
:1009B0008A508F8312C08F2D8A3079F4188280E993
:1009C000898385E58A831B828C81807E84608C8309
:1009D0008FE68D838BE68E8380C0188280E98983C1
:1009E00085E58A831B828C81807E80618C83EF2DDC
:1009F000F0E0E553FD4F8081833061F0843028F4CE
:100A00008130A1F08230D9F40EC0843091F085306D
:100A1000B1F412C06091AE077091AF078091B0073A
:100A20009091B1071EC00E94B40127C00E949E0190
:100A300030C00E94E60139C00E94FB0142C08330F1
:100A400069F0843030F4813009F1823009F042C01D
:100A500011C0843039F18530E9F530C060E070E0D4
:100A6000CB018E010B5F1F4F45E023E00E94C30FB7
:100A700086E52FC060E070E0CB018E010B5F1F4F59
:100A800045E021E00E94C30F8CE423C060E070E0E9
:100A9000CB018E010B5F1F4F45E021E00E94C30F89
:100AA00083E417C060E070E0CB018E010B5F1F4F45
:100AB00045E021E00E94C30F83E50BC060E070E0D9
:100AC000CB018E010B5F1F4F45E021E00E94C30F59
:100AD00084E48B8780E28A87FC86DF91CF911F9127
:100AE0000F91FF900895BF92CF92DF92EF92FF9205
:100AF0000F931F938134B9F518E0AFE6DA2EF5E0D5
:100B0000EF2EEAE1FE2E0E94750A082F0E94750A58
:100B10008A3309F0D3C00E94750A823341F4E02F72
:100B2000F0E0EA58F84FF08288E291E013C0853394
:100B300041F4E02FF0E0EA58F84FE08281E391E0E1
:100B400009C0843349F4E02FF0E0EA58F84FD0822E
:100B500089E391E00E94A50A0E94750A8B3309F08F
:100B6000ADC0115081F60E94750A853409F4A0C009
:100B70008D3409F04FC018E075E0C72E64E0D62E22
:100B800053E0E52E42E0F42E01E00E94750AB82EF3
:100B90000E94750A8A3309F091C00E94750A813358
:100BA00041F4EB2DF0E0E556FD4F008381E691E046
:100BB00027C0823341F4EB2DF0E0E556FD4FF08283
:100BC0008CE691E01DC0833341F4EB2DF0E0E55657
:100BD000FD4FE08288E791E013C0843341F4EB2DB0
:100BE000F0E0E556FD4FD08282E891E009C0853300
:100BF00049F4EB2DF0E0E556FD4FC0828EE891E020
:100C00000E94A50A0E94750A8B3309F057C0115043
:100C100009F0BBCF0E94750A853409F449C08435B8
:100C2000C9F40E94750A64E6869FB0011124605CD5
:100C3000724180E090E00E94AA0E6093D702709308
:100C4000D8028093D9029093DA020E94750A8B33FE
:100C50009105A1F50E94750A853451F1833421F57F
:100C60000E94750A833521F481E08093C90204C093
:100C7000833711F41092C9020E94750A833421F45B
:100C800081E08093CA0204C0833611F41092CA0234
:100C90000E94750A8E3421F481E08093D00304C051
:100CA0008E3611F41092D0030E94750A853431F407
:100CB00083E491E00E94A50A81E001C080E01F91D9
:100CC0000F91FF90EF90DF90CF90BF900895FF922B
:100CD0000F931F93883439F518E0FF24F3940E9492
:100CE000750A082F0E94750A8A33E1F50E94750A79
:100CF000813341F4E02FF0E0E65CF84FF0828DE9BB
:100D000091E009C0803349F4E02FF0E0E65CF84F51
:100D100010828AEA91E00E94A50A0E94750A8B332C
:100D200009F51150E1F60E94750A863589F418E03C
:100D30000E94750A0E94750A8A33A1F40E94750AFE
:100D40000E94750A0E94750A8B3361F4115081F775
:100D50000E94750A853431F483E491E00E94A50A6B
:100D600081E001C080E01F910F91FF9008950F93E3
:100D70001F93DF93CF93CDB7DEB7A1970FB6F8944B
:100D8000DEBF0FBECDBF182F8091D7039091D8033F
:100D9000BE016F5F7F4F4AE050E00E94E50FE12FF8
:100DA000F0E0E553FD4F8081833061F0843028F41A
:100DB0008130B1F0823011F510C08430A1F085305F
:100DC000E9F414C06091AE077091AF078091B0074D
:100DD0009091B10747E023E00DC00E94B40108C024
:100DE0000E949E0105C00E94E60102C00E94FB0114
:100DF00047E021E003E917E00E94C30FCE0101960E
:100E00000E94A50A89E00E94900A84E997E00E9466
:100E1000A50A8AE00E94900A8091D7039091D80396
:100E200001969093D8038093D703A1960FB6F894B8
:100E3000DEBF0FBECDBFCF91DF911F910F910895FF
:100E4000BF92CF92DF92EF92FF920F931F93DF93A7
:100E5000CF93CDB7DEB7A1970FB6F894DEBF0FBE24
:100E6000CDBFB82E8091D5039091D6036E01089422
:100E7000C11CD11CB6014AE050E00E94E50F609110
:100E8000AE077091AF078091B0079091B107B3E9B9
:100E9000EB2EB7E0FB2E47E023E087010E94C30F53
:100EA000C6010E94A50A89E00E94900AC701019626
:100EB0000E94A50A89E00E94900A8B2D805D0E9405
:100EC000900A8AE00E94900A8091D5039091D603FF
:100ED00001969093D6038093D503A1960FB6F8940C
:100EE000DEBF0FBECDBFCF91DF911F910F91FF905D
:100EF000EF90DF90CF90BF9008951F93182F86EB4F
:100F000091E00E94A50A1037C1F0113730F4123574
:100F1000D1F0133609F043C03CC0123739F1133712
:100F200009F03DC083B7817F83BF83B7816083BFF2
:100F3000889583B78E7F83BF04C08EEB91E00E94BB
:100F4000A50A81E031C00E94750A90E0C097823006
:100F5000910541F08330910539F081309105F9F424
:100F6000419A24C0429A22C0439A20C00E94750A26
:100F700090E0C0978230910541F08330910539F0BF
:100F80008130910561F4419814C0429812C0439891
:100F900010C00E94750A0E947305982F01C090E04E
:100FA00081E0913009F080E01F9108958AEC91E092
:100FB000C6CF86ED91E0C3CF0F931F93DF93CF93FE
:100FC000CDB7DEB72D970FB6F894DEBF0FBECDBFFD
:100FD000FC01818190819037B9F0913720F49235EE
:100FE00009F063C01EC0923709F444C0933709F07A
:100FF0005CC083B7817F83BF83B7816083BF8895DF
:1010000083B78E7F83BF53C08E010F5F1F4FC80110
:101010006AE00E94CA04479A82EE91E00E94A50A03
:1010200040C090E0C0978230910569F0833091050F
:1010300089F081309105C9F4419A8E010F5F1F4FED
:10104000C8016BE00DC0429A8E010F5F1F4FC801AF
:101050006CE006C0439A8E010F5F1F4FC8016DE020
:101060000E94CA04C8010E943D0D80EF91E00E94D9
:10107000A50A1DC090E0C0978230910541F08330F1
:10108000910539F08130910591F4419803C042985F
:1010900001C043988E010F5F1F4FC8016AE00E9494
:1010A000CA04C8010E943D0D02C080E001C081E079
:1010B0002D960FB6F894DEBF0FBECDBFCF91DF9156
:1010C0001F910F9108950E946C0B882319F480E002
:1010D00092E002C089E292E00E94A50A089585B5D7
:1010E000836085BD089580E008952F923F924F92CE
:1010F0005F926F927F928F929F92AF92BF92CF92A8
:10110000DF92EF92FF920F931F93DF93CF93CDB7B0
:10111000DEB76B970FB6F894DEBF0FBECDBF7894E5
:101120000E94EB000E94F60087E690E00E945B0AB6
:101130008CE392E00E94A50A8FE592E00E94A50A46
:101140000E946308409A479A47981092850010922F
:1011500084008091810085608093810080E090E030
:10116000AAEFB3E48093D7029093D802A093D90258
:10117000B093DA0200E010E0EE24FF240F2EF0E03E
:101180002F2EF0E03F2EF0E04F2EF0E05F2EF02DFE
:101190005E010894A11CB11C88B121E0822788B9A6
:1011A0008F2D883009F4FF242092D1033092D2038E
:1011B0004092D3035092D4036091D1037091D20333
:1011C0008091D3039091D4032091D7023091D8021B
:1011D0004091D9025091DA020E945C0F18160CF46B
:1011E000A1C09E2D983009F4EE24CE2CDD24F6010A
:1011F000EA55F84F8081882309F47CC08E2D0E9427
:101200003102F601EE0FFF1FEE0FFF1FE25FFB4FF3
:1012100080819181A281B381843F21E0920720E007
:10122000A20720E0B20719F08E2D0E949D02F60160
:10123000E553FD4F8081863009F05CC06090A207C5
:101240007090A3078090A4079090A507C401B301F4
:1012500020E030E040E85FEB0E940D0E8823D1F1E2
:101260006091AE077091AF078091B0079091B10780
:1012700020E030E048EC52E40E94600F0E94790EBA
:101280006B01C401B30120E030E048EC52E40E945D
:10129000600F0E94790EC61AD70AD7FE04C0D094F8
:1012A000C194D108D39485E0C816D1043CF085E8F8
:1012B00092E00E94A50A00E010E00CC097E009301F
:1012C000190734F08CE892E00E94A50A00E010E0D3
:1012D0000F5F1F4F8091AE079091AF07A091B007AD
:1012E000B091B1078093A2079093A307A093A4079E
:1012F000B093A507E3946091D1037091D2038091DC
:10130000D3039091D40320E030E040E85FE30E94F3
:10131000A90D6093D1037093D2038093D30390936C
:10132000D4034ACF8091C902882381F10E94750AB3
:10133000282F833641F0803731F0833721F0823512
:1013400011F0823799F4822F2B8F0E947D0788231A
:1013500069F485E992E00E94A50A2B8D822F0E94F4
:10136000900A84EA92E00E94A50A479AEF2DF0E0E5
:10137000EA55F84F8081882349F08F2D0E94310271
:101380008F2D0E949D028F2D0E944B048091CA02D6
:101390008823C9F1CE010E960E94C90C8823F9F06A
:1013A0008D898433E1F48B89803741F0833631F0C5
:1013B000833721F0823511F0823789F4CE014396CC
:1013C0000E94DC07882359F48AEB92E00E94A50A68
:1013D0008B890E94900A84EA92E00E94A50AEF2D70
:1013E000F0E0EA55F84F8081882369F08F2D0E9444
:1013F00031028F2D0E949D02C5016F2D0E94CA04EB
:10140000C5010E943D0DF3944798C6CE1F920F92DE
:101410000FB60F9211242F938F939F93EF93FF9307
:101420008091C0009091C600E091EB03EF5FEF71F7
:101430002091EC03E21741F08871E093EB03F0E0B8
:10144000E351FC4F908301C082E080930D04FF9133
:10145000EF919F918F912F910F900FBE0F901F9042
:1014600018951F920F920FB60F9211248F939F938E
:10147000EF93FF939091D9038091DA03981769F065
:10148000E091DA03EF5FEF70E093DA03F0E0E5520A
:10149000FC4F80818093C60005C08091C1008F7D84
:1014A0008093C100FF91EF919F918F910F900FBE9C
:1014B0000F901F9018951092D9031092DA03109292
:1014C000EB031092EC0397FF03C022E02093C000CF
:1014D000292F20782093C5008093C40088E9809349
:1014E000C10086E08093C20008959091EB03809143
:1014F000EC03981789F0E091EC03EF5FEF71E09354
:10150000EC03F0E0E351FC4F808190910D04392F02
:1015100020E0280F311D02C020E031E0C90108950C
:101520009091D9039F5F9F702091DA039217E1F3A6
:10153000E92FF0E0E552FC4F80839093D90380912E
:10154000C10080628093C1000895EF92FF92CF9313
:10155000DF93E82EE7017E01F92EE70102C00E9429
:10156000900A89918823D9F7DF91CF91FF90EF906E
:101570000895CF93DF93EC0102C00E94900AFE0110
:10158000219684918823C9F7DF91CF9108958EBD6C
:101590000DB407FEFDCF8EB5089585B18F7185B965
:1015A00084B1806A84B92698249A2C9A80E58CBDEF
:1015B0001DBC08951F93DF93CF9300D0CDB7DEB746
:1015C000182F2C9885E04A8369830E94C70A812FCF
:1015D0000E94C70A6981862F0E94C70A4A81842F08
:1015E0000E94C70A2C9A0F900F90CF91DF911F9104
:1015F00008950F931F93CF93DF93EC010A81102F6F
:1016000016951F70079500270795000F000B8BEDAF
:1016100092E00E94A50A8881805D0E94900A8AE07B
:101620000E94900A83EE92E00E94A50A812F805DBD
:101630000E94900A8AE00E94900A8CEE92E00E943A
:10164000A50A802F805D0E94900A8AE00E94900A7D
:101650000023A9F485EF92E00E94A50A239609C011
:101660008991805D0E94900A8EEF92E00E94A50A07
:101670000F5F0117A8F382E093E00E94A50ADF91B3
:10168000CF911F910F9108951F93DF93CF930F92E6
:10169000CDB7DEB7182F2C9882E069830E94C70A65
:1016A000812F0E94C70A6981862F0E94C70A2C9A3F
:1016B0000F90CF91DF911F9108951F93182F2C98B1
:1016C00083E00E94C70A812F0E94C70A8FEF0E9401
:1016D000C70A2C9A1F9108952C9A0E94CD0A2C9823
:1016E00080EC0E94C70A8FE19EE40197F1F700C0E9
:1016F00000002C9A8FE39CE90197F1F700C00000ED
:101700002C9882E00E94C70A88E20E94C70A82E001
:101710000E94C70A80E90E94C70A80E00E94C70AA7
:101720002C9A8AE20E945D0B8823B1F48CE061E080
:101730000E94440B8DE060E00E94440B80E660E66E
:101740000E94440B80E760E60E94440B8FE064E057
:101750000E94440B81E0089580E008951F932C9827
:1017600080EB0E94C70A8FEF0E94C70A182F8FEFE5
:101770000E94C70A2C9A812F1F910895CF92DF9261
:10178000EF92FF920F931F93DF93CF930F92CDB7FA
:10179000DEB78C010E94AE0B89832C9880E90E94F1
:1017A000C70A8FEF0E94C70AE82EFF2423E0EE0C41
:1017B000FF1C2A95E1F7F801F182E0828FEF0E9489
:1017C000C70A82958695877090E08E299F29F80137
:1017D000918380838FEF0E94C70A8FEF0E94C70A10
:1017E0008FEF0E94C70A9FE0C92EC8229C2D990F37
:1017F000F8018281817E892B828383E0E82EF12C9F
:10180000E00EF11EDD2407C08FEF0E94C70AF7012A
:1018100081937F01D394DC14B8F32C9A9981F80159
:10182000828193FF02C0816002C08E7FF8018283B3
:1018300081E00F90CF91DF911F910F91FF90EF907A
:10184000DF90CF9008952C980E94C70A8FEF0E94D6
:10185000C70A2C9A08950F931F93CF93DF93EC013F
:101860001A8116951F702881398143E03695279596
:101870004A95E1F781E3622F0E94440B68816295EB
:10188000660F607E82E30E94440B8A8180FF06C05F
:10189000612F606485E30E94440B0FC085E3612FD4
:1018A0000E94440B239600E006C06991802F8A5C59
:1018B0000E94440B0F5F0117C0F32C9881E80E942F
:1018C000C70A2C9A81E0DF91CF911F910F91089563
:1018D0000F931F93DF93CF93CDB7DEB766970FB605
:1018E000F894DEBF0FBECDBF84E093E00E94A50A4E
:1018F00081E090E09A8389838B81807E84608B83F2
:1019000083E38C8381E18D838E010F5F1F4FC801BC
:101910000E94F90A87E193E00E94A50A8FE060EE39
:1019200040E40E94DA0AC8010E942B0C882319F0B7
:1019300085E393E002C080E693E00E94A50A8FEF62
:1019400091EEA4E081509040A040E1F700C000007B
:101950008E01045F1F4FC8010E94BE0B882351F007
:101960008BE893E00E94A50AC8010E94F90A82E070
:1019700093E002C081EA93E00E94A50A66960FB642
:10198000F894DEBF0FBECDBFCF91DF911F910F91B5
:101990000895CF92DF92EF92FF920F931F93DF9300
:1019A000CF930F92CDB7DEB78C0180EB0E94230C52
:1019B00089837E010894E11CF11C898186FD05C0A4
:1019C000898187FF4FC084E901C080E92C980E947B
:1019D000C70A8FEF0E94C70AF80180838FEF0E9429
:1019E000C70AF80181838FEF0E94C70AF80182833A
:1019F0008FEF0E94C70AF80183838FEF0E94C70A06
:101A00005FE0C52EC8229C2D990FF8018481817E4C
:101A1000892B8483F701808191E083FF90E0F801B6
:101A200084818E7F892B84830B5F1F4FDD2407C049
:101A30008FEF0E94C70AF80181938F01D394DC14C1
:101A4000B8F32C9AF701808186FF03C08CE261E035
:101A500002C08CE262E040E00E94DA0A898187706D
:101A60008F5F01C080E00F90CF91DF911F910F91A8
:101A7000FF90EF90DF90CF900895DF92EF92FF926A
:101A80000F931F93DF93CF930F92CDB7DEB78C01E7
:101A900080EA0E94230C8983898182FF09C08981A1
:101AA00084FF08C0898186FD48C074E0F72E04C019
:101AB000FF2402C062E0F62E2C988F2D80640E94D5
:101AC000C70AF80180810E94C70AF80181810E943B
:101AD000C70AF80182810E94C70AF80183810E9427
:101AE000C70AF8018481E82EE694FFE0EF2280FF28
:101AF00005C08E2D80640E94C70A0FC08E2D0E94E3
:101B0000C70A0B5F1F4FDD2406C0F80181918F01CA
:101B10000E94C70AD394DE14C0F32C9AF5E0FA951C
:101B2000F1F700002C98FF2011F4FF24F3948F2D7F
:101B300080680E94C70A2C9A01C0FF248F2D0F9045
:101B4000CF91DF911F910F91FF90EF90DF9008955B
:101B50005058BB27AA270ED075C166D130F06BD183
:101B600020F031F49F3F11F41EF45BC10EF4E095B8
:101B7000E7FB51C1E92F77D180F3BA1762077307EA
:101B80008407950718F071F49EF58FC10EF4E09567
:101B90000B2EBA2FA02D0B01B90190010C01CA0127
:101BA000A0011124FF27591B99F0593F50F4503ED2
:101BB00068F11A16F040A22F232F342F4427585FC4
:101BC000F3CF469537952795A795F0405395C9F7DC
:101BD0007EF41F16BA0B620B730B840BBAF0915094
:101BE000A1F0FF0FBB1F661F771F881FC2F70EC033
:101BF000BA0F621F731F841F48F487957795679506
:101C0000B795F7959E3F08F0B3CF9395880F08F0EE
:101C10009927EE0F979587950895D9D008F481E01C
:101C200008950CD00FC107D140F0FED030F021F460
:101C30005F3F19F0F0C0511139C1F3C014D198F3CE
:101C40009923C9F35523B1F3951B550BBB27AA273D
:101C500062177307840738F09F5F5F4F220F331FAF
:101C6000441FAA1FA9F333D00E2E3AF0E0E830D07B
:101C700091505040E695001CCAF729D0FE2F27D07E
:101C8000660F771F881FBB1F261737074807AB074C
:101C9000B0E809F0BB0B802DBF01FF2793585F4FC1
:101CA0002AF09E3F510568F0B6C000C15F3FECF3DB
:101CB000983EDCF3869577956795B795F7959F5F86
:101CC000C9F7880F911D9695879597F90895E1E0DA
:101CD000660F771F881FBB1F621773078407BA0739
:101CE00020F0621B730B840BBA0BEE1F88F7E09594
:101CF000089504D06894B111D9C00895BCD088F07B
:101D00009F5790F0B92F9927B751A0F0D1F0660FE7
:101D1000771F881F991F1AF0BA95C9F712C0B13002
:101D200081F0C3D0B1E00895C0C0672F782F882715
:101D3000B85F39F0B93FCCF3869577956795B39541
:101D4000D9F73EF490958095709561957F4F8F4FB0
:101D50009F4F0895E89409C097FB3EF490958095B5
:101D6000709561957F4F8F4F9F4F9923A9F0F92F61
:101D700096E9BB279395F695879577956795B795DF
:101D8000F111F8CFFAF4BB0F11F460FF1BC06F5FC5
:101D90007F4F8F4F9F4F16C0882311F096E911C0D7
:101DA000772321F09EE8872F762F05C0662371F0F8
:101DB00096E8862F70E060E02AF09A95660F771F0C
:101DC000881FDAF7880F9695879597F90895990FE8
:101DD0000008550FAA0BE0E8FEEF16161706E807F5
:101DE000F907C0F012161306E407F50798F0621B16
:101DF000730B840B950B39F40A2661F0232B242BEB
:101E0000252B21F408950A2609F4A140A6958FEF09
:101E1000811D811D089597F99F6780E870E060E05B
:101E200008959FEF80EC089500240A941616170673
:101E300018060906089500240A94121613061406BB
:101E400005060895092E0394000C11F4882352F01E
:101E5000BB0F40F4BF2B11F460FF04C06F5F7F4FD6
:101E60008F4F9F4F089557FD9058440F551F59F0BD
:101E70005F3F71F04795880F97FB991F61F09F3F77
:101E800079F087950895121613061406551FF2CFA0
:101E90004695F1DF08C0161617061806991FF1CFF0
:101EA00086957105610508940895E894BB27662717
:101EB0007727CB0197F908958ADF08F48FEF08950B
:101EC0000BD0C0CFB1DF28F0B6DF18F0952309F0B2
:101ED000A2CFA7CF1124EACFC6DFA0F3959FD1F3FD
:101EE000950F50E0551F629FF001729FBB27F00DC8
:101EF000B11D639FAA27F00DB11DAA1F649F66271D
:101F0000B00DA11D661F829F2227B00DA11D621F6B
:101F1000739FB00DA11D621F839FA00D611D221F25
:101F2000749F3327A00D611D231F849F600D211D09
:101F3000822F762F6A2F11249F5750408AF0E1F0AC
:101F400088234AF0EE0FFF1FBB1F661F771F881FF5
:101F500091505040A9F79E3F510570F05CCFA6CF3D
:101F60005F3FECF3983EDCF3869577956795B795E0
:101F7000F795E7959F5FC1F7FE2B880F911D96950A
:101F8000879597F90895EF92FF920F931F93322F41
:101F9000F02E47FF02C0A4E101C0A4E0E42FFF2718
:101FA000E7FDF095F7FF03C0F095E195FF4F4F2D4A
:101FB000512F2E2F032FEA2E0E9406108F2D912FC6
:101FC0001F910F91FF90EF900895FB019F01E894FE
:101FD0004230C4F04532B4F44A3029F497FB1EF481
:101FE000909581959F4F642F77270E944512805DC1
:101FF0008A330CF0895D8193CB010097A1F716F429
:102000005DE251931082C9010C943512A9E0B0E051
:10201000ECE0F0E10C9461126A01F22E102F0C3307
:1020200018F4B02EB39402C0ECE3BE2EAE014F5FA5
:102030005F4F27E00B2D0E945D11298130E0A9013F
:10204000497050704130510531F0E1FC06C0E0FEAE
:1020500006C0E0E205C0EDE203C0EBE201C0E0E053
:1020600023FF37C0EE2311F084E001C083E08F1519
:1020700018F4F81A8F2D01C080E0E4FC0BC0982FF3
:10208000D60120E202C02D9391509923E1F7C80EAA
:10209000D11C80E0EE2319F0D601ED936D01F6011D
:1020A0003196E2FE05C09EE4D6019C9321E404C073
:1020B0009EE6D6019C9321E611962C93918332964D
:1020C000982FDF0120E202C02D9391509923E1F770
:1020D0003DC022FF41C0EE2311F084E001C083E047
:1020E0008F1518F4F81A8F2D01C080E0E4FC0BC0A6
:1020F000982FD60120E202C02D9391509923E1F749
:10210000C80ED11C80E0EE2319F0D601ED936D01CD
:10211000F6013196E2FE09C099E4D6019C939EE453
:1021200011969C93119796E407C099E6D6019C936B
:102130009EE611969C9396E691833296982FDF0146
:1021400020E202C02D9391509923E1F7E80FF11D91
:1021500010822EEF3FEFACC041E050E0EE2311F4CF
:1021600040E050E01816190624F4BC016F5F7F4F61
:1021700002C061E070E0640F751F112329F0412F48
:1021800050E04F5F5F4F02C040E050E0460F571FE6
:102190006F2D70E0461757071CF40F2D041B01C06C
:1021A00000E0FF24A70140715070E4FC0DC0E3FC87
:1021B0000BC0602FD60170E202C07D936150662390
:1021C000E1F7C00ED11C00E0EE2319F0D601ED932B
:1021D0006D014115510559F4402FF60150E302C03D
:1021E000519341504423E1F7C00ED11C00E0B80EDA
:1021F000FA80A9014071507024FF04C0BF2DB13393
:1022000009F4BA941B142CF4AB2DA93018F0A8E0F3
:1022100001C0A1E09C0197FF02C020E030E0BC01BA
:102220006F5F7F4F621B730BFE013196E60FF71F46
:102230006EE2E62EBC016A1B7109A12FB0E0AA2450
:10224000BB24AA1ABB0A1FEF2F3F310719F4D6018E
:10225000ED926D01821793072CF06217730714F447
:10226000108101C010E32150304031962A153B0502
:1022700024F0D6011D936D01E6CF2817390749F4E4
:10228000BF2DB63328F4B53321F44115510509F4B7
:1022900011E3F6011193802FDF0190E202C09D93BC
:1022A00081508823E1F7E00FF11D108220E030E03B
:1022B000C9012996EAE00C947D12283008F027E045
:1022C0003327DA01990F311D87FD91600096610572
:1022D000710539F432602E5F3D9330E32A95E1F7C2
:1022E00008959F3F30F080387105610509F03C5F2B
:1022F0003C5F3D93913008F08068911DDF93CF9350
:102300001F930F93FF92EF92192F987F9695E92FC5
:1023100096959695E90FFF27EA52FF4F99273327A5
:10232000EE24FF24A701E70105900894079428F400
:10233000360FE71EF81E491F511D660F771F881FB5
:10234000991F0694A1F70590079428F4E70EF81E4C
:10235000491F561FC11D770F881F991F661F0694BE
:10236000A1F70590079428F4F80E491F561FC71FC0
:10237000D11D880F991F661F771F0694A1F705903E
:10238000079420F4490F561FC71FD81F990F661FC7
:10239000771F881F0694A9F784911095177041F054
:1023A000D695C79557954795F794E7941A95C1F731
:1023B000ECE7F0E068941590159135916591959151
:1023C00005907FE27395E118F10A430B560BC90B98
:1023D000D009C0F7E10CF11E431F561FC91FD01DC5
:1023E0007EF4703311F48A95E6CFE894015030F012
:1023F000080F0AF40027021708F4202F2395022F54
:102400007A3328F079E37D932A95E9F710C07D931C
:102410002A9589F606949795679537951795179499
:10242000E118F10A430B560BC90BD00998F023951C
:102430007E9173957A3308F070E37C932013B8F79C
:102440007E9170617D9330F0839571E37D9370E3AD
:102450002A95E1F71124EF90FF900F911F91CF91F2
:10246000DF91992787FD90950895DC01FC01672F86
:1024700071917723E1F7329704C07C916D9370835B
:102480006291AE17BF07C8F30895AA1BBB1B51E1A9
:1024900007C0AA1FBB1FA617B70710F0A61BB70BD4
:1024A000881F991F5A95A9F780959095BC01CD0179
:1024B00008952F923F924F925F926F927F928F92E8
:1024C0009F92AF92BF92CF92DF92EF92FF920F93C3
:1024D0001F93CF93DF93CDB7DEB7CA1BDB0B0FB6CD
:1024E000F894DEBF0FBECDBF09942A88398848888A
:1024F0005F846E847D848C849B84AA84B984C88420
:10250000DF80EE80FD800C811B81AA81B981CE0F16
:10251000D11D0FB6F894DEBF0FBECDBFED010895FB
:04252000F894FFCF5D
:1025240048303A004C303A0048313A004C313A00D5
:10253400503A00205600204C002043002053002035
:10254400636D00204C656400323620736574200A84
:10255400003520736574200A0034303020736574AC
:10256400200A000A0A202D2D2D20206E6577206375
:102574006F6E6669672073657420212121200A0A21
:102584000074656D7020736574200A006C69676857
:102594007420736574200A00766F6C207365742050
:1025A4000A006E6F69736520736574200A0064699C
:1025B4007374616E636520736574200A00686967CB
:1025C40068657220736574200A006C6F77657220E9
:1025D400736574200A007265616374200A00703A9E
:1025E4006F6B2020202020200A00523A6F6B20209D
:1025F400202020200A00723A6F6B20202020202007
:102604000A0070696E672062792063616E200A0097
:1026140072656C6169732062792063616E200A00BF
:102624004665686C65723A206B616E6E204D43504E
:1026340032353135206E6963687420616E7370724F
:10264400656368656E210A0A004D435032353135A1
:1026540020697320616B7469760A0A0048692068EE
:102664006176652066756E207573696E672074687F
:10267400652053797374656D20202121200A00534D
:10268400797374656D732072756E6E696E672069F7
:102694006E2067656E6572616C206D6F64652020C5
:1026A4002121200A004C3A6F6B200A004C3A616CDD
:1026B4006572740A0020636F6D6D616E642055410C
:1026C40052542000207265616420696E636F6D70DE
:1026D4006C657465202121210A0020636F6D6D6192
:1026E4006E642043414E2000960101000600000064
:1026F40000000000007A430000344369643A20205B
:102704002020006C61656E67653A20007274723A2D
:102714002020202000646174656E3A202000203B54
:1027240020000A0045727A65756765204E6163680A
:1027340072696368740A000A77656368736C65205C
:102744007A756D204C6F6F706261636B2D4D6F6491
:1027540075730A0A004E616368726963687420774E
:102764007572646520696E206469652050756666BB
:10277400657220676573636872696562656E0A00D5
:102784004665686C65723A206B6F6E6E7465206482
:102794006965204E6163687269636874206E696359
:1027A40068742073656E64656E0A004E61636872B6
:1027B4006963687420656D7066616E67656E210A71
:1027C400004665686C65723A206B6F6E6E746520A6
:1027D400646965204E6163687269636874206E6918
:1027E400636874206175736C6573656E0A0A000012
:00000001FF
